:020000040000FA
:100000000C9463000C948B000C948B000C948B006C
:100010000C948B000C948B000C948B000C948B0034
:100020000C948B000C948B000C948B000C94AD05FD
:100030000C948B000C948B000C948B000C948B0014
:100040000C940B050C948B000C947B050C945505BB
:100050000C948B000C948B000C948B000C948B00F4
:100060000C948B000C948B000000000024002700EF
:100070002A0000000000250028002B0000000000DE
:1000800023002600290004040404040404040202DA
:100090000202020203030303030301020408102007
:1000A0004080010204081020010204081020000012
:1000B0000008000201000003040700000000000027
:1000C00000006906A00B11241FBECFEFD8E0DEBFF1
:1000D000CDBF11E0A0E0B1E0EEEEFCE102C0059082
:1000E0000D92A434B107D9F722E0A4E4B1E001C035
:1000F0001D92A834B207E1F710E0C2E6D0E004C0D8
:100100002197FE010E94580CC136D107C9F70E9401
:10011000CB060C946A0E0C940000E0914102EC3086
:1001200088F54091420228E830E0241B310947FD60
:100130003395220F331F220F331F8217930784F04A
:100140004091430228E532E0241B310947FD3395F5
:10015000220F331F220F331F821793070CF49C01C9
:1001600022503109220F331F4FB7F8948E2F90E0A1
:10017000FC01EE0FFF1FE80FF91FEA5EFD4F32830F
:1001800021834FBF089584E480937C0080917A009E
:10019000806480937A0080917A0086FDFCCF809104
:1001A0007800909179000895833081F028F48130AF
:1001B00099F08230A9F008958730A9F08830C9F00D
:1001C0008430B1F4809180008F7D03C080918000E5
:1001D0008F7780938000089584B58F7784BD0895CC
:1001E00084B58F7DFBCF8091B0008F778093B00076
:1001F00008958091B0008F7DF9CFCF93DF93282FA2
:1002000030E0F901E255FF4F8491F901E656FF4FC6
:10021000D491F901EA57FF4FC491CC23A1F0811189
:100220000E94D400EC2FF0E0EE0FFF1FE458FF4FC8
:10023000A591B491EC91ED2381E090E009F480E088
:10024000DF91CF91089580E090E0FACF1F93CF9394
:10025000DF93282F30E0F901E255FF4F8491F90137
:10026000E656FF4FD491F901EA57FF4FC491CC23D2
:10027000A9F0162F81110E94D400EC2FF0E0EE0FB0
:10028000FF1FEE58FF4FA591B4918FB7F894EC91F2
:10029000111108C0D095DE23DC938FBFDF91CF9181
:1002A0001F910895DE2BF8CFCF93DF9390E0FC01F0
:1002B000E656FF4F24918A579F4FFC018491882373
:1002C000D1F090E0880F991FFC01E859FF4FA591EC
:1002D000B491FC01EE58FF4FC591D49161110EC04D
:1002E0009FB7F8948C91E22FE0958E238C93288110
:1002F000E223E8839FBFDF91CF9108958FB7F894F1
:10030000EC91E22BEC938FBFF6CF1F93CF93DF934B
:10031000182FEB0161E00E945401209739F460E04E
:10032000812FDF91CF911F910C942601CF3FD105F2
:1003300011F461E0F5CFE12FF0E0E255FF4FE491D9
:10034000E33031F140F4E130B1F0E230E1F0C038B7
:10035000D1057CF7E4CFE73029F1E83059F1E430FA
:10036000B1F780918000806280938000D0938B00F1
:10037000C0938A0004C084B5806884BDC7BDDF9186
:10038000CF911F91089584B5806284BDC8BDF7CF19
:1003900080918000806880938000D0938900C09312
:1003A0008800EDCF8091B00080688093B000C0934A
:1003B000B300E5CF8091B00080628093B000C0931D
:1003C000B400DDCF3FB7F89480917501909176012C
:1003D000A0917701B091780126B5A89B05C02F3F69
:1003E00019F00196A11DB11D3FBFBA2FA92F982F5B
:1003F0008827BC01CD01620F711D811D911D42E056
:10040000660F771F881F991F4A95D1F708958F921D
:100410009F92AF92BF92CF92DF92EF92FF924B01E9
:100420005C010E94E2016B017C010E94E2016C19F7
:100430007D098E099F09683E734081059105A8F3E7
:1004400021E0821A9108A108B10888EEC80E83E065
:10045000D81EE11CF11C81149104A104B10429F7F8
:10046000FF90EF90DF90CF90BF90AF909F908F90D4
:1004700008950895AF92BF92CF92DF92EF92FF92CC
:100480000F931F93CF93DF936C017B018B01040FBC
:10049000151FEB015E01AE18BF08C017D10759F058
:1004A0006991D601ED91FC910190F081E02DC6019A
:1004B0000995892B79F7C501DF91CF911F910F9194
:1004C000FF90EF90DF90CF90BF90AF900895FC0128
:1004D000538D448D252F30E0842F90E0821B930BA9
:1004E000541710F0CF96089501970895FC01918D4F
:1004F000828D981761F0A28DAE0FBF2FB11D5D9652
:100500008C91928D9F5F9F73928F90E008958FEFF3
:100510009FEF0895FC01918D828D981731F0828DA7
:10052000E80FF11D858D90E008958FEF9FEF0895FE
:10053000FC01918D228D892F90E0805C9F4F821B62
:1005400091098F739927089589E791E00E94980295
:1005500021E0892B09F420E0822F089580E090E0CB
:10056000892B29F00E94A40281110C9400000895A7
:10057000FC01A48DA80FB92FB11DA35ABF4F2C9118
:10058000848D90E001968F739927848FA689B7890F
:100590002C93A089B1898C91837080648C93938D06
:1005A000848D981306C00288F389E02D80818F7DA9
:1005B00080830895EF92FF920F931F93CF93DF9361
:1005C000EC0181E0888F9B8D8C8D98131AC0E8898F
:1005D000F989808185FF15C09FB7F894EE89FF895E
:1005E0006083E889F98980818370806480839FBFFC
:1005F00081E090E0DF91CF911F910F91FF90EF90FC
:100600000895F62E0B8D10E00F5F1F4F0F7311270B
:10061000E02E8C8D8E110CC00FB607FCFACFE88946
:10062000F989808185FFF5CFCE010E94B802F1CF14
:10063000EB8DEC0FFD2FF11DE35AFF4FF0829FB7BA
:10064000F8940B8FEA89FB8980818062CFCFCF93AA
:10065000DF93EC01888D8823B9F0AA89BB89E889EA
:10066000F9898C9185FD03C0808186FD0DC00FB690
:1006700007FCF7CF8C9185FFF2CF808185FFEDCF0E
:10068000CE010E94B802E9CFDF91CF910895CF93B8
:10069000DF9320913F0230914002232B89F0FC012F
:1006A000C0913B02D0913C0260817181CE010E94D9
:1006B000500E009729F08C1B9D0BDF91CF91089570
:1006C0008FEF9FEFFACFCF93DF93EC018881998171
:1006D000009711F00E94FA0C198218821D821C8268
:1006E0001B821A82DF91CF910895FC018081918154
:1006F000009711F00C94FA0C08950F931F93CF9369
:10070000DF938C01EB01FC01808191810097E1F086
:100710006881798161157105A9F0428153812C812D
:100720003D814217530770F00E94490E8C819D81D4
:10073000F801958384831D821C82DF91CF911F91E4
:100740000F9108950E94FA0C88819981F801918394
:1007500080838A819B81938382838C819D81958311
:100760008483198218821B821A82E5CF0F931F930C
:10077000CF93DF93EC0188819981009759F02A810A
:100780003B812617370730F081E0DF91CF911F9131
:100790000F9108958B016F5F7F4F0E94830D00972B
:1007A00059F0998388831B830A832C813D81232BF5
:1007B00059F7FC011082E8CF80E0E7CFEF92FF927B
:1007C0000F931F93CF93DF9341155105B1F07B0138
:1007D000EC010C811D81040F151FB8010E94B603A6
:1007E000882361F0288139818C819D81B701820F36
:1007F000931F0E94490E1D830C8381E0DF91CF91EE
:100800001F910F91FF90EF900895EF92FF920F9339
:100810001F93CF93DF9300D000D000D01F92CDB7AD
:10082000DEB77C01CB014AE08E010F5F1F4FB8019C
:100830000E94EB0BF80101900020E9F73197AF011E
:10084000401B510BB801C7010E94DE03811103C098
:10085000C7010E946303C70127960FB6F894DEBF55
:100860000FBECDBFDF91CF911F910F91FF90EF9001
:100870000895EF92FF920F931F93CF93DF93CDB71D
:10088000DEB728970FB6F894DEBF0FBECDBF7C0150
:10089000CB014AE08E010F5F1F4FB8010E94CB0BC6
:1008A000F80101900020E9F73197AF01401B510B8F
:1008B000B801C7010E94DE03811103C0C7010E9475
:1008C0006303C70128960FB6F894DEBF0FBECDBFF5
:1008D000DF91CF911F910F91FF90EF900895CF93EB
:1008E000DF93EC01FB0101900020E9F73197AF01A4
:1008F000461B570B0E94DE03811103C0CE010E94EC
:100900006303CE01DF91CF910895EF92FF920F9391
:100910001F93CF93DF93EC017B018A01BA010E9400
:10092000B60381110BC0CE010E946303CE01DF919B
:10093000CF911F910F91FF90EF9008951D830C832D
:10094000B701888199810E94490EF0CFFB01019087
:100950000020E9F73197AF01461B570B0C94850433
:10096000FC01118210821382128215821482FB0113
:1009700001900020E9F73197AF01461B570B0C940B
:100980008504CF92DF92EF92FF920F931F93CF9344
:10099000DF936C017B018A014617570720F48F2DE6
:1009A0007A01062F182F62E471E0C6010E94B0049C
:1009B000C0913F02D0914002EC16FD06F8F40C17EE
:1009C0001D0708F4E801E0913B02F0913C02EC0FB6
:1009D000FD1F1081108260913B0270913C026E0DF0
:1009E0007F1DC6016115710599F00E94A6048091D2
:1009F0003B0290913C02C80FD91F1883C601DF91BA
:100A0000CF911F910F91FF90EF90DF90CF900895BD
:100A10000E946303ECCF1F920F920FB60F92112426
:100A20002F933F938F939F93AF93BF9380917101C7
:100A300090917201A0917301B09174013091700195
:100A400023E0230F2D3758F50196A11DB11D2093EA
:100A500070018093710190937201A0937301B09320
:100A600074018091750190917601A0917701B09108
:100A700078010196A11DB11D8093750190937601B7
:100A8000A0937701B0937801BF91AF919F918F911F
:100A90003F912F910F900FBE0F901F90189526E851
:100AA000230F0296A11DB11DD2CF1F920F920FB638
:100AB0000F9211242F933F934F935F936F937F93E4
:100AC0008F939F93AF93BF93EF93FF9389E791E049
:100AD0000E94B802FF91EF91BF91AF919F918F91CA
:100AE0007F916F915F914F913F912F910F900FBE2A
:100AF0000F901F9018951F920F920FB60F9211240E
:100B00002F938F939F93EF93FF93E0918901F0913F
:100B10008A018081E0918F01F091900182FD1BC0DC
:100B20009081809192018F5F8F7320919301821742
:100B300041F0E0919201F0E0E758FE4F958F8093ED
:100B40009201FF91EF919F918F912F910F900FBE86
:100B50000F901F9018958081F4CF1F920F920FB6BF
:100B60000F9211242F933F934F935F936F937F9333
:100B70008F939F93AF93BF93CF93DF93EF93FF93A5
:100B800080914401C0913A02D0E087FF24C01092C6
:100B9000850010928400809144018F5F809344010E
:100BA00080914401082E000C990B8C179D0724F4AA
:100BB000809144018C30C4F1809184009091850033
:100BC000049680349C4908F47AC080918400909106
:100BD0008500049676C080914401082E000C990B84
:100BE0008C179D07C4F6E09144018E2FEE0F990BF0
:100BF000FC01EE0FFF1FE80FF91FEA5EFD4F808139
:100C000086FFC9CFE09144018E2FEE0F990BFC01B6
:100C1000EE0FFF1FE80FF91FEA5EFD4F808160E0D5
:100C20008F730E942601B7CF2091840030918500F8
:100C3000E09144018E2FEE0F990BFC01EE0FFF1F88
:100C4000E80FF91FEA5EFD4F81819281820F931FA9
:100C50009093890080938800E09144018E2FEE0FDD
:100C6000990BFC01EE0FFF1FE80FF91FEA5EFD4F25
:100C7000808186FF11C0E09144018E2FEE0F990B09
:100C8000FC01EE0FFF1FE80FF91FEA5EFD4F8081A8
:100C900061E08F730E942601FF91EF91DF91CF9168
:100CA000BF91AF919F918F917F916F915F914F9184
:100CB0003F912F910F900FBE0F901F90189580E4D9
:100CC0009CE990938900809388008FEF8093440182
:100CD000E3CF10927C0110927B0188EE93E0A0E0BC
:100CE000B0E080937D0190937E01A0937F01B0934B
:100CF00080018AE091E090937A018093790185ECFC
:100D000090E0909386018093850184EC90E090932D
:100D100088018093870180EC90E090938A01809312
:100D2000890181EC90E090938C0180938B0182EC9F
:100D300090E090938E0180938D0186EC90E09093EB
:100D4000900180938F011092920110929301109262
:100D500094011092950180913A028C30C0F491E098
:100D6000980F90933A028093410290E0FC01EE0FBD
:100D7000FF1FE80FF91FEA5EFD4F88EB9BE09283AF
:100D8000818362E471E08BE392E00C94B0048FEF16
:100D900080934102F6CFCF93DF93CDB7DEB7E797CD
:100DA0000FB6F894DEBF0FBECDBF789484B58260D5
:100DB00084BD84B5816084BD85B5826085BD85B5FF
:100DC000816085BD80916E00816080936E0010927D
:100DD00081008091810082608093810080918100F8
:100DE0008160809381008091800081608093800089
:100DF0008091B10084608093B1008091B0008160E7
:100E00008093B00080917A00846080937A00809112
:100E10007A00826080937A0080917A00816080936A
:100E20007A0080917A00806880937A001092C100E5
:100E3000E0918901F0918A0182E08083E09185014F
:100E4000F09186011082E0918701F091880180E1A4
:100E5000808310929101E0918D01F0918E0186E0E6
:100E60008083E0918B01F0918C018081806180838F
:100E7000E0918B01F0918C01808188608083E0910A
:100E80008B01F0918C01808180688083E0918B01DF
:100E9000F0918C0180818F7D808361E08DE00E94E4
:100EA0005401809141028C3008F051C061E086E02D
:100EB0000E94540180914102282F30E0F901EE0F89
:100EC000FF1FE20FF31FEA5EFD4F9081907C96605A
:100ED000908310924202109243022CE0622F0E94F3
:100EE0004C0C829FB001112430E020E0AB01420F96
:100EF000531FFA01EE0FFF1FE40FF51FEA5EFD4FCF
:100F0000908196FD16C02F5F3F4F2C30310571F751
:100F100081110FC01092800082E0809381001092B6
:100F2000850010928400B19A80916F008260809356
:100F30006F00E09141028E2F90E0FC01EE0FFF1F49
:100F4000E80FF91FEA5EFD4F80818064808388EEA0
:100F500093E00E948D0061E08EE00E94540161E008
:100F60008FE00E94540161E080E10E94540161E041
:100F700081E10E94540160E082E10E94540160E03E
:100F800088E00E94540160E084E00E94540160E027
:100F900087E00E94540160E08CE00E94540161E00F
:100FA0008AE00E94540161E08BE00E94540161E0FC
:100FB00089E00E94540161E083E00E94540189E7C6
:100FC00091E00E94980218161906A4F489E791E0AE
:100FD0000E94760280936F018A3061F089831A82C1
:100FE00041E050E0BE016F5F7F4F8BE392E00E94D3
:100FF000DE03E5CF80916F018A3009F084C062E49E
:1010000071E0CE0148960E94B00462E471E0CE0126
:1010100042960E94B00468E171E0CE0101960E9400
:10102000B004CE0101960E944703182F8093460119
:10103000CE0101960E9475036AE171E0CE0101962E
:101040000E94B004CE0101960E944703082F8093AE
:101050004501CE0101960E94750317FD20C0412F66
:10106000012E000C550B70E060E0CE0101960E944D
:10107000C104BE016F5F7F4FCE0148960E947D0381
:10108000CE0101960E947503888D998D009709F411
:10109000DFC20E94A40B709348016093470107FDD3
:1010A00022C0402F000F550B612F110F770B6F5F80
:1010B0007F4FCE0101960E94C104BE016F5F7F4F3A
:1010C000CE0142960E947D03CE0101960E947503D7
:1010D0008A899B89009709F4BFC20E94A40B709370
:1010E0006E0160936D01CE0142960E947503CE01A0
:1010F00048960E94750310926F0162E471E08BE3E1
:1011000092E00E94A60487E00E94FD00CC24C394D4
:10111000892B09F4C12CC092690184E00E94FD0072
:10112000EE24E394892B09F4E12CE0926A018CE02F
:101130000E94FD00FF24F394892B09F4F12CF09216
:101140006B0188E00E94FD0066246394892B09F4FA
:10115000612C60926C0100E110E060E08EE00E9482
:10116000260160E08FE00E94260160E080E10E949D
:10117000260160E081E10E9426010E94C3004C012B
:1011800090934A018093490161E08EE00E9426011C
:1011900060E08FE00E94260160E080E10E9426016D
:1011A00060E081E10E9426010E94C3009F8F8E8F24
:1011B00090934C0180934B0160E08EE00E942601E9
:1011C00061E08FE00E94260160E080E10E9426013C
:1011D00060E081E10E9426010E94C30099A388A3D8
:1011E00090934E0180934D0161E08EE00E942601B4
:1011F00061E08FE00E94260160E080E10E9426010C
:1012000060E081E10E9426010E94C3009BA38AA3A3
:101210009093500180934F0160E08EE00E94260180
:1012200060E08FE00E94260161E080E10E942601DB
:1012300060E081E10E9426010E94C3009DA38CA36F
:10124000909352018093510161E08EE00E9426014B
:1012500060E08FE00E94260161E080E10E942601AB
:1012600060E081E10E9426010E94C3009FA38EA33B
:10127000909354018093530160E08EE00E94260118
:1012800061E08FE00E94260161E080E10E9426017A
:1012900060E081E10E9426010E94C30099A788A70F
:1012A000909356018093550161E08EE00E942601E3
:1012B00061E08FE00E94260161E080E10E9426014A
:1012C00060E081E10E9426010E94C3009BA78AA7DB
:1012D000909358018093570160E08EE00E942601B0
:1012E00060E08FE00E94260160E080E10E9426011C
:1012F00061E081E10E9426010E94C3009DA78CA7A6
:1013000090935A018093590161E08EE00E9426017A
:1013100060E08FE00E94260160E080E10E942601EB
:1013200061E081E10E9426010E94C3009FA78EA771
:1013300090935C0180935B0160E08EE00E94260147
:1013400061E08FE00E94260160E080E10E942601BA
:1013500061E081E10E9426010E94C30099AB88AB45
:1013600090935E0180935D0161E08EE00E94260112
:1013700061E08FE00E94260160E080E10E9426018A
:1013800061E081E10E9426010E94C3009BAB8AAB11
:101390009093600180935F0160E08EE00E942601DF
:1013A00060E08FE00E94260161E080E10E9426015A
:1013B00061E081E10E9426010E94C3009DAB8CABDD
:1013C000909362018093610161E08EE00E942601AA
:1013D00060E08FE00E94260161E080E10E9426012A
:1013E00061E081E10E9426010E94C3001C019093EC
:1013F00064018093630160E08EE00E94260161E059
:101400008FE00E94260161E080E10E94260161E0F8
:1014100081E10E9426010E94C3002C019093660185
:101420008093650161E08EE00E94260161E08FE01B
:101430000E94260161E080E10E94260161E081E1D5
:101440000E9426010E94C3005C0190936801809372
:1014500067010150110909F080CE80916D019091D2
:101460006E019FAB8EAB712C0F2D10E0F12CD12CA7
:101470001B8A1A8A1D8A1C8A1F8A1E8A4AE0BE019C
:101480006F5F7F4FC4010E94EB0BBE016F5F7F4F08
:10149000CE0142960E94A6041A8219821C821B82E7
:1014A0001E821D826A897B896115710531F04E8922
:1014B0005F89CE0101960E94850468E171E0CE014A
:1014C00001960E946F046E8D7F8D0E9405046AE173
:1014D00071E00E946F0468A179A10E9405046CE18B
:1014E00071E00E946F046AA17BA10E9405046EE175
:1014F00071E00E946F046CA17DA10E94050460E26E
:1015000071E00E946F046EA17FA10E94050462E257
:1015100071E00E946F0468A579A50E94050464E249
:1015200071E00E946F046AA57BA50E94050466E233
:1015300071E00E946F046CA57DA50E94050468E21D
:1015400071E00E946F046EA57FA50E9405046AE207
:1015500071E00E946F0468A979A90E9405046CE2F9
:1015600071E00E946F046AA97BA90E9405046EE2E3
:1015700071E00E946F046CA97DA90E94050460E3DC
:1015800071E00E946F04B1010E94050462E371E002
:101590000E946F04B2010E94050464E371E00E949E
:1015A0006F04B5010E94050466E371E00E946F04B8
:1015B000B6010E94390468E371E00E946F04B7012C
:1015C0000E9439046AE371E00E946F04B8010E942E
:1015D00039046CE371E00E946F04B3010E94390486
:1015E0006EE371E00E946F046EA97FA90E94390426
:1015F00060E471E00E946F04FC01448155816081C8
:10160000718189E791E00E943A02CE0101960E9421
:101610007503CE0142960E94750380916D019091F1
:101620006E010E948D00E0916F01E153E83008F0F7
:1016300047C00E2E000CFF0BE05EF44F0C94580CCC
:10164000300B350B560B6D0B860B600B880B8D0B1F
:1016500060E070E0CB011FCD60E070E0CB013FCDDA
:1016600061E08DE00E9426012BC061E08AE00E94CB
:1016700026010091470110914801B8018BE00E94BA
:10168000850168EE73E080E090E00E94070260E070
:101690008AE00E942601B8018BE00E94850168EE75
:1016A00073E080E090E00E9407020AC070E060E012
:1016B0008BE00E94850170E060E083E00E9485017C
:1016C00080E090E0892B09F47ACC0E94A402882360
:1016D00009F475CC0E94000072CC61E089E00E94A0
:1016E00026010091470110914801B80183E00E9452
:1016F000850168EE73E080E090E00E94070260E000
:1017000089E00E942601B80183E0C7CF60E0A9CF3D
:1017100090E080E00E948D00D3CF80ED97E00E94A2
:101720008D0060ED77E080E090E00E94070288EE97
:1017300093E00E948D0068E873E180E090E0B3CF11
:101740008BE392E00C9475031F93FC019927882783
:10175000BC01E89411911032E9F3193010F01E30F9
:10176000C8F31B3251F01D3249F4689406C00E9440
:10177000D60B610F711D811D911D119110531A30EF
:10178000B0F33EF490958095709561957F4F8F4FA3
:101790009F4F1F910895BB274A3031F4992322F4BB
:1017A000BDE2909581959F4F0C94EC0B592F482FDB
:1017B000372F262F660F771F881F991F660F771FF9
:1017C000881F991F620F731F841F951F660F771F55
:1017D000881F991F0895BB27FB015527AA27880F4B
:1017E000991FAA1FA41710F0A41B83955051B9F795
:1017F000A05DAA3308F0A95DA193009779F7B11114
:10180000B1931192CB010C94050CDC01FC01672F04
:1018100071917723E1F7329704C07C916D937083C7
:101820006291AE17BF07C8F308952F923F924F926F
:101830005F926F927F928F929F92AF92BF92CF9260
:10184000DF92EF92FF920F931F93CF93DF93CDB769
:10185000DEB7CA1BDB0B0FB6F894DEBF0FBECDBFE1
:1018600009942A88398848885F846E847D848C84B2
:101870009B84AA84B984C884DF80EE80FD800C81BB
:101880001B81AA81B981CE0FD11D0FB6F894DEBF9E
:101890000FBECDBFED010895991B79E004C0991FDB
:1018A000961708F0961B881F7A95C9F780950895BA
:1018B000EE0FFF1F0590F491E02D09940F931F93F5
:1018C000CF93DF938230910510F482E090E0E091B5
:1018D0004602F091470230E020E0B0E0A0E030970F
:1018E00099F42115310509F44AC0281B390B24301D
:1018F0003105D8F58A819B816115710589F1FB015C
:1019000093838283FE0111C0408151810281138142
:1019100048175907E0F04817590799F4109761F0F4
:1019200012960C93129713961C933296CF01DF9167
:10193000CF911F910F910895009346021093470293
:10194000F4CF2115310551F04217530738F0A901A2
:10195000DB019A01BD01DF01F801C1CFEF01F9CF31
:101960009093470280934602CDCFFE01E20FF31F12
:10197000819391932250310939832883D7CF2091C5
:10198000440230914502232B41F420910201309111
:1019900003013093450220934402209100013091CD
:1019A00001012115310541F42DB73EB740910401E5
:1019B00050910501241B350BE0914402F091450242
:1019C000E217F307A0F42E1B3F0B2817390778F016
:1019D000AC014E5F5F4F2417350748F04E0F5F1F75
:1019E0005093450240934402819391939FCFF0E03E
:1019F000E0E09CCFCF93DF930097E9F0FC013297B2
:101A000013821282A0914602B0914702ED0130E0AC
:101A100020E01097A1F420813181820F931F209143
:101A20004402309145022817390709F061C0F0934C
:101A30004502E0934402DF91CF910895EA01CE1769
:101A4000DF07E8F54A815B819E0141155105B1F739
:101A5000E901FB83EA8349915991C40FD51FEC1723
:101A6000FD0761F4808191810296840F951FE90141
:101A700099838883828193819B838A83F0E0E0E06D
:101A800012968D919C9113970097B9F52D913C91E9
:101A90001197CD010296820F931F2091440230913D
:101AA00045022817390739F6309751F51092470249
:101AB00010924602B0934502A0934402BCCFD38358
:101AC000C28340815181840F951FC817D90761F4E3
:101AD0004E5F5F4F88819981480F591F5183408322
:101AE0008A819B81938382832115310509F0B0CFD0
:101AF000F0934702E09346029ECFFD01DC01C0CF88
:101B000013821282D7CFB0E0A0E0E9E8FDE00C94A8
:101B1000170C8C01009751F4CB010E945E0C8C01D4
:101B2000C801CDB7DEB7E0E10C94330CFC01E60F41
:101B3000F71F9C0122503109E217F30708F49DC0FA
:101B4000D901CD91DC911197C617D70798F0C53010
:101B5000D10530F3CE0104978617970708F3C61B0B
:101B6000D70B2297C193D1936D937C93CF010E94A1
:101B7000FA0CD6CF5B01AC1ABD0A4C018C0E9D1E2F
:101B8000A0914602B0914702512C412CF12CE12C3E
:101B9000109731F58091440290914502881599057E
:101BA00009F05CC04616570608F058C08091000145
:101BB00090910101009741F48DB79EB740910401C7
:101BC00050910501841B950BE817F90708F055C0E3
:101BD000F0934502E0934402F90171836083A0CF42
:101BE0008D919C91119712966C90129713967C9000
:101BF0001397A815B90559F56C0142E0C40ED11C24
:101C0000CA14DB0420F1AC014A195B09DA0112960F
:101C1000159780F06282738251834083D9016D935E
:101C20007C93E114F10471F0D7011396FC93EE93C9
:101C3000129776CF22968C0F9D1FF9019183808396
:101C4000F301EFCFF0934702E093460269CF4816C5
:101C5000590608F42C017D01D3019ACFCB010E94D3
:101C60005E0C7C01009749F0AE01B8010E94400E65
:101C7000C8010E94FA0C870153CF10E000E050CF5A
:101C8000FB01DC0102C001900D9241505040D8F799
:101C90000895FB01DC0101900D920020E1F7089509
:101CA000FB0151915523A9F0BF01DC014D9145176E
:101CB0004111E1F759F4CD010190002049F04D9117
:101CC00040154111C9F3FB014111EFCF81E090E0D4
:101CD0000197089510E0C2E6D0E004C0FE010E9422
:101CE000580C2196C336D107C9F7F894FFCF0000EE
:101CF0004802800000000000DA023A02670227036F
:101D0000980276028A0241004200430044004500E6
:101D100046004700480049004A004B004C004D0077
:101D20004E004F0050005100520053005400550A1D
:021D30000000B1
:107E0000112484B714BE81FFF0D085E080938100F7
:107E100082E08093C00088E18093C10086E0809377
:107E2000C20080E18093C4008EE0C9D0259A86E02C
:107E300020E33CEF91E0309385002093840096BBD3
:107E4000B09BFECF1D9AA8958150A9F7CC24DD24C4
:107E500088248394B5E0AB2EA1E19A2EF3E0BF2EE7
:107E6000A2D0813461F49FD0082FAFD0023811F036
:107E7000013811F484E001C083E08DD089C08234E0
:107E800011F484E103C0853419F485E0A6D080C0E4
:107E9000853579F488D0E82EFF2485D0082F10E0AE
:107EA000102F00270E291F29000F111F8ED06801E7
:107EB0006FC0863521F484E090D080E0DECF843638
:107EC00009F040C070D06FD0082F6DD080E0C81688
:107ED00080E7D80618F4F601B7BEE895C0E0D1E017
:107EE00062D089930C17E1F7F0E0CF16F0E7DF06D8
:107EF00018F0F601B7BEE89568D007B600FCFDCFD4
:107F0000A601A0E0B1E02C9130E011968C91119780
:107F100090E0982F8827822B932B1296FA010C0160
:107F200087BEE89511244E5F5F4FF1E0A038BF0790
:107F300051F7F601A7BEE89507B600FCFDCF97BE46
:107F4000E89526C08437B1F42ED02DD0F82E2BD052
:107F50003CD0F601EF2C8F010F5F1F4F84911BD097
:107F6000EA94F801C1F70894C11CD11CFA94CF0C13
:107F7000D11C0EC0853739F428D08EE10CD085E9AC
:107F80000AD08FE07ACF813511F488E018D01DD067
:107F900080E101D065CF982F8091C00085FFFCCF94
:107FA0009093C60008958091C00087FFFCCF809118
:107FB000C00084FD01C0A8958091C6000895E0E648
:107FC000F0E098E1908380830895EDDF803219F02E
:107FD00088E0F5DFFFCF84E1DECF1F93182FE3DFCA
:107FE0001150E9F7F2DF1F91089580E0E8DFEE27F6
:047FF000FF270994CA
:027FFE00040479
:00000001FF
