:020000040800F2
:100000000030002041500008915000089150000835
:100010009150000891500008915000080000000025
:1000200000000000000000000000000091500008E7
:100030009150000800000000915000089B36000815
:10004000915000089150000891500008915000080C
:100050009150000891500008353700083B370008E0
:1000600091500008413700084737000891500008B8
:1000700091500008915000089150000891500008DC
:1000800091500008915000089150000891500008CC
:100090009150000891500008915000084D37000819
:1000A000954B0008214B0008A94B0008915000080F
:1000B000454B0008594B0008000000009150000813
:1000C000915000080000000000000000915000085E
:1000D000000000005D410008754100088D410008E6
:1000E00063370008513A00080000000000000000DB
:1000F0000000000000000000000000000000000000
:1001000000000000000000000000000000000000EF
:1001100000000000000000006D4B0008814B00084B
:1001200000000000000000000000000000000000CF
:1001300000000000000000000000000000000000BF
:1001400091500008915000080000000000000000DD
:10015000000000000000000000000000000000009F
:10016000000000000000000000000000000000008F
:10017000000000000000000000000000000000007F
:0801800000000000915000088E
:10018800034613F8012B002AFBD1181A01387047CF
:1001980010B5054C237833B9044B13B10448AFF3B9
:1001A80000800123237010BDC00000200000000063
:1001B800D858000808B5034B1BB103490348AFF3EF
:1001C800008008BD00000000C4000020D8580008C6
:1001D80008B5062221484FF4E13104F02DF9204BEF
:1001E8000121186805F002F81E48002100F0B4FB50
:1001F8000121052004F0FAFF0121062004F0F6FF92
:100208000121072004F0F2FF0121082004F0EEFF8D
:10021800154B0021186804F0E9FF144B00211868F9
:1002280004F0E4FF124B0021186804F0DFFF114BC3
:100238000121186804F0DAFF0F4B0121186804F057
:10024800D5FF0E4B0121186804F0D0FF0C4B01219B
:100258001868BDE8084004F0C9BF00BFA00300202B
:1002680000000020EC000020040000200C0000200A
:1002780008000020140000201C00002010000020AE
:100288001800002030B58BB02A492B4C2B4D01A803
:1002980004F075FD274904A804F071FD284907A852
:1002A80004F06DFD07A9274804F042FE207007A856
:1002B80004F020FD244907A804F061FD07A921489E
:1002C80004F036FE287007A804F014FD94F90030F5
:1002D800002B10DB00221B4907A804F02DFE07A9FC
:1002E80001A804F096FD07A804F004FD01A804F095
:1002F80049FE164B186095F90030002B12DB94F973
:1003080000201049013207A804F016FE07A904A826
:1003180004F07FFD07A804F0EDFC04A804F032FE09
:100328000B4B186004A804F0E5FC01A804F0E2FCFB
:100338000BB030BD1A590008EF000020F000002073
:10034800F0580008E0000020F258000818010020CA
:100358001C01002070B510260021052004F0ACFF18
:10036800002106209F4DA04C04F0A6FF0021072085
:1003780004F0A2FF0021082004F09EFF286804F082
:1003880097FE01212080052004F096FF0021062019
:1003980004F092FF0021072004F08EFF00210820BE
:1003A80004F08AFF286804F083FE0021608005209D
:1003B80004F082FF0121062004F07EFF00210720BF
:1003C80004F07AFF0021082004F076FF286804F082
:1003D8006FFE0121A080052004F06EFF0121062098
:1003E80004F06AFF0021072004F066FF00210820BE
:1003F80004F062FF286804F05BFE0021E08005201D
:1004080004F05AFF0021062004F056FF01210720BE
:1004180004F052FF0021082004F04EFF286804F081
:1004280047FE01212081052004F046FF0021062017
:1004380004F042FF0121072004F03EFF00210820BC
:1004480004F03AFF286804F033FE0021608105209B
:1004580004F032FF0121062004F02EFF01210720BD
:1004680004F02AFF0021082004F026FF286804F081
:100478001FFE0121A081052004F01EFF0121062096
:1004880004F01AFF0121072004F016FF00210820BC
:1004980004F012FF286804F00BFE0021E08105201B
:1004A80004F00AFF0021062004F006FF00210720BF
:1004B80004F002FF0121082004F0FEFE286804F081
:1004C800F7FD01212082052004F0F6FE0021062018
:1004D80004F0F2FE0021072004F0EEFE01210820BE
:1004E80004F0EAFE286804F0E3FD0021608205209C
:1004F80004F0E2FE0121062004F0DEFE00210720C0
:1005080004F0DAFE0121082004F0D6FE286804F081
:10051800CFFD0121A082052004F0CEFE0121062096
:1005280004F0CAFE0021072004F0C6FE01210820BD
:1005380004F0C2FE286804F0BBFD0021E08205201B
:1005480004F0BAFE0021062004F0B6FE01210720BF
:1005580004F0B2FE0121082004F0AEFE286804F081
:10056800A7FD01212083052004F0A6FE0021062016
:1005780004F0A2FE0121072004F09EFE01210820BC
:1005880004F09AFE286804F093FD0021608305209A
:1005980004F092FE0121062004F08EFE01210720BE
:1005A80004F08AFE0121082004F086FE286804F081
:1005B8007FFD0121A083052004F07EFE0121062095
:1005C80004F07AFE0121072004F076FE01210820BC
:1005D80004F072FE286804F06BFD013EE0837FF4AE
:1005E800BBAE70BD04000020F200002008B5094B26
:1005F800186804F08FFE084B003818BF01201870E7
:10060800064B186804F086FE054B003818BF012019
:10061800187008BD08000020120100200C000020FE
:100628001401002008B5044800F080F9BDE808402E
:100638000249034804F0A3BBEC0000201A59000843
:10064800E0000020014804F055BB00BFE000002096
:1006580070B50A4C0A4E0B4D204603F011FE0028D7
:100668000ADD204603F03AFFC1B20A29317003D0EF
:10067800284604F011FCEFE770BD00BFA00300207E
:10068800DC000020E000002070B5824D86B0FFF746
:10069800DFFF2B780A2B07D1FFF7F4FD00237E49F3
:1006A8007E482B7004F0BDFB7D4CFFF79FFFFFF7E2
:1006B80051FE0A222188684604F0C5FB694603A852
:1006C80004F09DFB774903A804F004FC618804F05A
:1006D80016FC754904F0FEFBA18804F010FC734970
:1006E80004F0F8FBE18804F00AFC714904F0F2FB1D
:1006F800218904F004FC6F4904F0ECFB618904F0E3
:10070800FEFB6D4904F0E6FBA18904F0F8FB6B4998
:1007180004F0E0FBE18904F0F2FB694904F0DAFB3C
:10072800218A04F0ECFB674904F0D4FB618A04F0E9
:10073800E6FB654904F0CEFBA18A04F0E0FB6349BF
:1007480004F0C8FBE18A04F0DAFB614904F0C2FB5B
:10075800218B04F0D4FB5F4904F0BCFB618B04F0EF
:10076800CEFB5D4904F0B6FBA18B04F0C8FB5B49E6
:1007780004F0B0FBE18B5A4C04F0C1FB594904F07A
:10078800A9FB594B197804F0BAFB584904F0A2FBAD
:10079800574B197804F0B3FB564904F09BFB564BB2
:1007A800197804F0ACFB554904F094FB544B1978C4
:1007B80004F0A5FB534904F08DFB216804F09FFB6E
:1007C800514904F087FB0146504804F050FA03A849
:1007D80004F090FA684604F08DFA21684C4800F05D
:1007E800BBF82B78313B072B31D8DFE803F0040A3C
:1007F80026323A303C410121464B186804F05CFD32
:1008080025E0454E454D3068454C012104F054FD26
:100818002968206804F062FC4FF47A7004F0ACFD9B
:100828003068002104F048FD2068296804F056FC6F
:100838004FF47A7004F0A0FD09E0394B00211868E4
:1008480004F04CFC374B0021186804F047FC06B054
:1008580070BD354E314D3068324C012104F02CFD0D
:10086800D6E70021C8E72A48002100F075F8EEE72E
:100878004FF4FA61264800F06FF84FF4FA6004F07C
:100888007BFD23484FF47A7100F066F841F2883016
:10089800D0E700BFDC0000201A590008E000002063
:1008A800F2000020F0580008F2580008F458000838
:1008B800F6580008F8580008FA580008FC580008CC
:1008C800FE58000800590008025900080459000899
:1008D80006590008085900080A5900080C59000868
:1008E8001C0100200E5900081301002010590008AF
:1008F800120100201259000815010020145900089F
:10090800140100201659000818590008A0030020F7
:10091800EC00002000000020140000201801002036
:100928001C0000201800002010000020084A13783E
:100938000B2B09D8591C1170064A037002EBC3032C
:1009480040F2DC525A607047FF230370704700BFC3
:1009580020010020CC01002010B504780B2C14D8FD
:1009680090F90120C2F18802B1EB820F4FEA8203AD
:1009780007DB90F90230C3F516739B008B42A8BFC2
:100988000B46024A02EBC402536010BDCC010020A2
:100998000149024803F0ACBF0014004024010020C4
:1009A800014803F085BF00BF240100207047000004
:1009B80038B50E4A0E4B054618784FF47A73B3FBD8
:1009C800F0F31068B0FBF3F000F0C8FD044658B926
:1009D8000F2D09D8024629464FF0FF3000F06AFD76
:1009E800044B20461D6038BD0120FCE74000002074
:1009F8002000002024000020074A08B5136843F0AF
:100A080010031360032000F043FD0020FFF7D0FF20
:100A1800FFF7CCFF002008BD00200240034A044B2A
:100A280011681B780B441360704700BF1C05002039
:100A380020000020014B1868704700BF1C050020EB
:100A4800006C704703689A6812F00C0F70B5044682
:100A580001D1002070BDDA68900125D5208B40F2C5
:100A68000112904220D1214A1968490610D5402226
:100A78001A600C219A68520706D59A6896075EBFD5
:100A88009A6842F010029A600C290FD104251DE0E3
:100A9800013AE9D1236C43F010032364636C43F0FB
:100AA800010363640120D5E76029E3D19A68100740
:100AB80006D59A6892075EBF9A6842F020029A604B
:100AC800602910D06C2914BF04250C25FFF7B2FF4C
:100AD800064623689B682B42BBD0FFF7ABFF801B01
:100AE8000B28F6D9D6E70825F0E700BF01940900DE
:100AF80038B503680446986800F00300012801D05F
:100B0800002038BD1A68D207FAD59A6802F00D029B
:100B1800012A1BD19A6842F002029A6003221A60E5
:100B2800FFF788FF054623689B68DB07E8D5FFF7D2
:100B380081FF401B0228F6D9236C43F0100323647D
:100B4800636C43F0010363640120DAE7236C43F02C
:100B580010032364636C43F001036364D1E700006E
:100B680038B503689A6802F00302012A044604D1E2
:100B78001A68D20701D5002038BD99680E4A11427B
:100B880009D0236C43F010032364636C43F0010322
:100B980063640120F0E79A6842F001029A60FFF767
:100BA80049FF054623681B68DB07E4D4FFF742FFCB
:100BB800401B0228F6D9E4E73F00008073B5002304
:100BC80001930446002800F0E280026CD50600F18B
:100BD800CB80036C002B00F09180002023689A687A
:100BE800D20002D59B689B000AD5236C23F0120320
:100BF80043F010032364636C43F001036364012032
:100C0800236CDE0600F1BD80002840F0BA8023681E
:100C1800996811F0040140F0B480226C22F48172CA
:100C280042F0020222649D685A4AB3F1A04F05F0CF
:100C3800030518BF4FF0A042012D02D11D68ED0732
:100C48000ED4956805F00305012D02D11268D2076C
:100C580006D4514D6668AA6822F440323243AA602D
:100C6800626B657E012AD4E9026242EA060218BF75
:100C78004FF4805142EA45320A4394F82010012982
:100C880007D1002D72D1616A013942EA414242F42A
:100C98008032A16A01291EBFE56A29430A4399687F
:100CA80011F00C0F0CD1D96821F4804121F0020118
:100CB800D96094F83010257E490041EA85310A430D
:100CC800DD68364929400A43DA602269012A05BFEE
:100CD800196BE2691A6B02F1FF3206BF21F00F01AE
:100CE8000A4322F00F021A6300236364236C23F083
:100CF800030343F00103236402B070BDC0E912335B
:100D0800436480F83C3002F025FB23689B68D800D8
:100D18003FF563AF2046FFF7EBFE226CD1063FF5A7
:100D28005DAF00287FF45AAF236C226823F4885300
:100D380023F0020343F002032364936823F0405333
:100D48009360936843F080539360154B154A1B6872
:100D5800B3FBF2F20A2353430193019B002B3FF4A8
:100D68003CAF019B013BF7E7184649E7216C21F0AE
:100D7800220141F020012164616C41F001016164AC
:100D880087E7236C23F0120343F010032364012048
:100D9800B2E700BF000100500003005007C0F0FF99
:100DA8004000002040420F0038B50446002800F0FB
:100DB800A580036C43F0020303646C21FFF742FE35
:100DC8000546002840F093802268D36843F4001356
:100DD800D3602046FFF78CFE01230546002840F02B
:100DE8008B802364236846485A6822F4FF6222F005
:100DF80007025A6040F2FF721A609A6822F0E042D5
:100E08009A609A6842F000529A60D9683D4A0A404E
:100E1800DA605A6922F07F5222F47F1222F47F525C
:100E280022F038025A619A6902F078429A611A6A85
:100E380002F0F0221A625A6A02F0FF225A629A6A93
:100E480002F0FF229A62196B2F4A0A401A63596B03
:100E5800014059639A6B02409A63DA6B22F4FB6291
:100E680022F00702DA63196E284A11401966596E92
:100E780011405966996E11409966D96E0A40DA6632
:100E8800D3F8A02022490A40C3F8A020D3F8A42010
:100E98000A40C3F8A420D3F8B0200A40C3F8B02011
:100EA800D3F8B42022F07F12C3F8B4209968194A05
:100EB800B3F1A04F01F0030118BF4FF0A042012980
:100EC80002D11B68D9070CD4936803F00303012BE4
:100ED80002D11368DB0704D40F4A104B91680B400A
:100EE8009360204602F07CFA0023636423640023A5
:100EF80084F83C30284638BD1D46F8E70125F9E757
:100F0800200882E004800080300882E000F0FF03BF
:100F18000100F8FF0001005000030050E0103CFE03
:100F280038B503689D6815F00405044658D190F853
:100F38003C30012B54D0012380F83C30FFF710FEE1
:100F480000284AD1236C23F4706323F0010343F48F
:100F580080732364234B9A68236812F01F0F226C56
:100F680002D0B3F1A04F2ED122F480122264DA68A5
:100F7800950141BF226C22F4405242F4805222640F
:100F8800226C12F480521CBF626C22F0060262646A
:100F9800002284F83C201C221A60124A9168C90673
:100FA8000CD0916801F01F01052907D0926802F062
:100FB8001F02092A02D0B3F1A04F03D19A6842F068
:100FC80004029A6038BD42F480122264064A9342B1
:100FD800D6D14FF0A042D268CAE784F83C50F1E776
:100FE8000220EFE7000300500001005010B590F810
:100FF8003C30012B044616D0012380F83C306C218C
:10100800FFF720FD58B92046FFF772FD38B9236C69
:1010180023F4885323F0010343F0010323640023DE
:1010280084F83C3010BD0220FCE700002DE9F041B7
:101038004669082E04460F461CD0364A936813F0BA
:101048001F030CD10268D268D60712D5026C42F091
:101058002002026484F83C300120BDE8F0819368E6
:1010680013F4404F05D0036C43F0200303640023BE
:10107800F0E70C26274B9A682368D50604D0B3F10D
:10108800A04F18BF4FF0A043DD68FFF7D3FC8046A0
:1010980023681A68324222D0226C42F40072226419
:1010A800DA6805F4005102F440620A4311D11A6863
:1010B80011070ED59A6812F0040F226C22D122F47F
:1010C80080722264226CD20403D4226C42F00102A2
:1010D800226415F480400CBF1E600020BDE7781C18
:1010E800D7D047B9236C43F004032364002384F862
:1010F8003C300320B1E7FFF79DFCA0EB0800B842A5
:10110800C6D9EFE742F020022264626C42F0010285
:101118006264DEE7000300500368186C7047F8B596
:1011280090F83C30012B04460E4638D0012780F851
:101138003C70FFF7DDFC0546E0B9236827649A6830
:1011480022F080429A60BE4202BF9A6842F0804212
:101158009A609A6842F000429A60FFF76BFC064674
:1011680023689B68002B09DB236C23F0030343F0FF
:1011780001032364002384F83C300EE0FFF75AFC97
:10118800801B0A28ECD9236C23F0120343F01003C8
:101198002364002384F83C3001252846F8BD022545
:1011A800FBE700002DE9F3410023019390F83C3060
:1011B800CE68012B054600F05F812B68012085F879
:1011C8003C009A68570700F1528148680A6806246B
:1011D800042804FB00F431D8186B1F27A74020EA25
:1011E800070002FA04F404431C63986810F00C0F1B
:1011F8005CD1092AD1F808C002EB42004FF007047D
:1012080041D99F691E38844027EA04040CFA00F08B
:1012180020439861D868C0F3C10C48694FEA4C0C68
:1012280000FA0CFC086900F1FF3E4FEA8268BEF143
:10123800030F6BD8DFE80EF03049545F09280AD84D
:10124800586B1E3C1F27A74020EA070002FA04F447
:1012580004435C63C9E70E284FF01F0009D89F6B51
:101268003C3CA04027EA000002FA04F420439863BB
:10127800BBE7DF6B5A3CA04027EA000002FA04F4FF
:101288000443DC63B1E75F69844027EA04040CFA8D
:1012980000F004435C61BDE7186E784F074047EAE9
:1012A800080040EA0C0040F000401866986800F01A
:1012B800030001284ED11868C4074BD5002000232D
:1012C80085F83C3002B0BDE8F081586E6B4F07409E
:1012D80047EA080040EA0C0040F000405866E5E79D
:1012E800986E664C044044EA080040EA0C0040F05E
:1012F80000409866DAE7DC6E6048204040EA080063
:1013080040EA0C0040F00040D866CFE7186E00F0C5
:10131800F840404502BF186E20F000401866586E2D
:1013280000F0F840404502BF586E20F00040586673
:10133800986E00F0F840404502BF986E20F00040DB
:101348009866D86E00F0F8404045AFD1D86E20F0CE
:101358000040D9E70120012E00FA02F03BD0D3F873
:10136800B01021EA0000C3F8B000102A56D1444951
:10137800896811F4000FA1D198684249B3F1A04FD0
:1013880000F0030018BF4FF0A041012802D11868EF
:10139800C00766D4886800F00300012802D10968F4
:1013A800C9075ED4102A48D1B3F1A04F86D1344A78
:1013B800936843F400039360334B344A1B68B3FBD0
:1013C800F2F20A2353430193019B002B3FF476AFBB
:1013D800019B013BF7E7D3F8B040092A40EA040033
:1013E800C3F8B0008C680CD902EB420198691B392C
:1013F80007268E4020EA060004FA01F101439961AC
:10140800B3E70132586902EB42020721914020EA12
:10141800010004FA02F1014359614FE7112A04D18E
:101428001749896811F0807FA5E7122A7FF446AF33
:101438001349896811F4800F9DE7112A09D1B3F186
:10144800A04F7FF43BAF0E4A936843F080739360DC
:1014580034E7122A7FF432AF094A936843F48003D1
:10146800F5E72B6C43F020032B64012027E72B6C56
:1014780043F020032B6422E7022023E700F0FF83D8
:1014880000030050000100504000002040420F00BF
:101498000749CA6822F4E0620302120403F4E06315
:1014A800120C134343F0BF6343F40033CB6070471F
:1014B80000ED00E0164B30B5DC68C4F30224C4F13B
:1014C8000705231D042D28BF0425062B4FF0FF33E5
:1014D8008CBF033C002403FA05F521EA0501A3406B
:1014E80022EA0302A140002841EA0203ACBF00F14E
:1014F8006040084A4FEA0313B8BF00F00F00DBB2A0
:10150800AABF00F56140135480F8003330BD00BF16
:1015180000ED00E014ED00E0002808DB420901239B
:1015280000F01F0003FA00F0014B43F82200704757
:1015380000E100E000280DDB4309012200F01F0054
:1015480002FA00F02033044A42F82300BFF34F8F19
:10155800BFF36F8F704700BF00E100E00138B0F1C2
:10156800807F0AD2064B074A5860F02182F8231080
:101578000020072298601A6070470120704700BF5A
:1015880010E000E000ED00E0002809DB430901223B
:1015980000F01F0002FA00F06033024A42F823000C
:1015A800704700BF00E100E0704708B5FFF7FCFF97
:1015B80008BD10B5044668B1037903F0FF0213B9FA
:1015C800427101F007FE02232371002001232061EC
:1015D800237110BD0120FCE710B5044640B1022379
:1015E800037101F06BFE002020616071207110BD55
:1015F8000120FCE710B504680122236802FA01F112
:1016080023EA010323600271002010BD13B50068AE
:1016180000240194019041B9019908310A440192CA
:10162800019A0020136002B010BD01991431F5E74A
:1016380010B54379012B4FF0020314D003710368EE
:1016480001221C688A4022431A601A6869B902F0AC
:101658003C023C2A03D15A6842F001025A60012335
:10166800037100234371184610BD02F47012B2F5DD
:10167800701FF4D15A6842F00202EFE770B543795F
:101688000568012B4FF002031AD0124E0371B542C0
:101698002C680B6816D1AAB924F47F64496824F031
:1016A8000E040B43934023432B602B68C02101FA9F
:1016B80002F223EA020201232A6003710023437124
:1016C800184670BD40F6FE769640896824EA0604FE
:1016D800E7E700BF0074004010B590F82120022A07
:1016E80003D004228263012010BD0268436B116895
:1016F80021F00E011160116821F001011160D0E99B
:101708000F140122A2404A604FF48072028413B180
:1017180098470020E8E71846E6E70000044A5169C0
:10172800014208B502D0506101F0EAFF08BD00BFD0
:10173800000401402DE9F7430546002835D0036829
:10174800DA0711D42B689B0700F188802B681C07E7
:1017580000F1FB802B68580700F14781E8690028F1
:1017680040F0D68100204BE0BD4C636803F00C03C9
:10177800042B07D0636803F00C03082B17D16368A8
:10178800DF0314D54FF4003393FAA3F2216893FAD8
:10179800A3F3B3FA83F303F01F03012202FA03F35E
:1017A8000B42CFD06B68002BCCD1012028E06A68AF
:1017B800B2F5803F27D1236843F480332360E36A7E
:1017C800A96823F00F030B43E36262B3FFF732F912
:1017D8004FF4003706464FF0010897FAA7F322683E
:1017E80097FAA7F3B3FA83F303F01F0308FA03F396
:1017F8001342A7D1FFF71EF9831B642BEDD90320F1
:1018080003B0BDE8F083236832B923F48033236042
:10181800236823F48023D1E7B2F5A02FF5D143F450
:1018280080232360C7E7FFF705F94FF40037064622
:101838004FF0010897FAA7F3226897FAA7F3B3FACB
:1018480083F303F01F0308FA03F313423FF47AAF5C
:10185800FFF7F0F8831B642BECD9D0E7804C636862
:1018680013F00C0F07D0636803F00C03082B21D189
:101878006368DE031ED4022393FAA3F2216893FA65
:10188800A3F3B3FA83F303F01F03012202FA03F36D
:101898000B4202D02B69934287D121686B6921F0F2
:1018A800F801F82292FAA2F2B2FA82F293400B43BC
:1018B80023604BE72A69012312B393FAA3F3B3FA1F
:1018C80083F303F1845303F584139B0001261E6000
:1018D800FFF7B0F84FF00208074698FAA8F3226815
:1018E80098FAA8F3B3FA83F303F01F0306FA03F395
:1018F8001342D2D1FFF79EF8C31B022BEDD97EE726
:1019080093FAA3F3B3FA83F303F1845303F584132F
:101918009B0000221A60FFF78DF8022706464FF059
:10192800010897FAA7F3226897FAA7F3B3FA83F3A3
:1019380003F01F0308FA03F313423FF407AFFFF75E
:1019480079F8831B022BECD959E7A969444C454A1D
:10195800012321B393FAA3F3B3FA83F313449B004F
:1019680001261E60FFF766F80227804697FAA7F35C
:1019780097FAA7F397FAA7F3626A97FAA7F3B3FA65
:1019880083F303F01F0306FA03F313427FF4E2AE76
:10199800FFF750F8A0EB0803022BE7D92FE793FADB
:1019A800A3F3B3FA83F313449B0000221A60FFF7F2
:1019B80041F8022607464FF0010896FAA6F396FA70
:1019C800A6F396FAA6F3626A96FAA6F3B3FA83F335
:1019D80003F01F0308FA03F313423FF4BBAEFFF70B
:1019E80029F8C31B022BE8D909E71D4CE369D90084
:1019F80034D4E36943F08053E361E36903F080532F
:101A08000193019B0127184E3368DA052ED5EB6840
:101A1800012B3CD1236A43F001032362FFF70AF844
:101A280002268046B14696FAA6F396FAA6F3002B4C
:101A380000F00281216A99FAA9F3B3FA83F303F05B
:101A48001F03012202FA03F30B4258D0002F3FF480
:101A580085AEE36923F08053E3617FE60027D2E790
:101A6800001002402081901000700040336843F459
:101A780080733360FEF7DEFF80463368DB05C6D42B
:101A8800FEF7D8FFA0EB08006428F6D9B7E643BBF9
:101A9800236A23F001032362236A23F004032362E9
:101AA800FEF7C8FF02268046B14696FAA6F396FAD4
:101AB800A6F3002B00F0C480216A99FAA9F3B3FABF
:101AC80083F303F01F03012202FA03F30B42BDD094
:101AD800FEF7B0FF41F28833A0EB08009842E4D942
:101AE8008DE6052B236A03D143F00403236291E7B3
:101AF80023F001032362236A23F004038DE7FEF732
:101B080099FF41F28833A0EB080098428BD976E61A
:101B18004D4B5A6802F00C02082A1C467BD002285A
:101B28004FF0807352D193FAA3F3B3FA83F303F11E
:101B3800845303F584139B0000221A60FEF77AFF92
:101B48004FF0007706464FF0010897FAA7F322688E
:101B580097FAA7F3B3FA83F303F01F0308FA03F322
:101B680013422DD1D5E9081362680B4322F474128D
:101B7800134363604FF0807393FAA3F3B3FA83F3CC
:101B880003F1845303F584139B0001251D60FEF7C0
:101B980051FF4FF00077064697FAA7F3226897FAA5
:101BA800A7F3B3FA83F303F01F0305FA03F3134211
:101BB8007FF4D8ADFEF73EFF831B022BECD91EE65F
:101BC800FEF738FF831B022BBFD918E693FAA3F35D
:101BD800B3FA83F303F1845303F584139B000022C3
:101BE8001A60FEF727FF4FF000760546012796FAA0
:101BF800A6F3226896FAA6F3B3FA83F303F01F0359
:101C080007FA03F313423FF4ADADFEF713FF431B8E
:101C1800022BECD9F3E501283FF4F2AD5B682A6AA0
:101C280003F4803191427FF4C0AD6A6A03F4701303
:101C380093423FF497ADB8E596FAA6F3616AFAE6DF
:101C480096FAA6F3616A38E700100240134B596808
:101C580001F00C02082A1A461ED101F470104FF444
:101C6800701393FAA3F3B3FA83F320FA03F30C483F
:101C7800C05CD36A0F2203F00F0392FAA2F2B2FA01
:101C880082F2D340074AD25CCB034ABF064B074BCC
:101C9800B3FBF2F358437047034870470010024003
:101CA8001B5900082B59000800127A0000093D0052
:101CB8002DE9F0410D46044610B90120BDE8F08138
:101CC800464A136803F007038B422ED32268910714
:101CD80036D4D2073CD4414A136803F00703AB4219
:101CE80068D822683E4D12F0040F6FD1130706D54D
:101CF8006B68226923F4605343EAC2036B60FFF701
:101D0800A5FF6B68F02203F0F00392FAA2F2B2FA90
:101D180082F2D340334AD35CD840334B1860334BFC
:101D28001868FEF745FE0020C8E7136823F007038C
:101D38000B431360136803F007038B42BDD1C5E75B
:101D48002749A0684B6823F0F00303434B60C0E7C2
:101D58006268234E012A27D14FF4003393FAA3F186
:101D6800306893FAA3F3B3FA83F303F01F03012156
:101D780001FA03F30342A0D0736823F003031A4364
:101D88007260FEF757FE41F288380746736862684A
:101D980003F00C03B3EB820F9DD0FEF74BFEC01B84
:101DA8004045F3D9032089E7022A0CBF4FF000739E
:101DB8000223D3E7136823F007032B431360136848
:101DC80003F00703AB427FF478AF8AE76B68E168FA
:101DD80023F4E0630B436B6088E700BF00200240F8
:101DE80000100240045A000840000020240000208F
:101DF800084B1868084B5B684FF4E06203F4E06333
:101E080092FAA2F2B2FA82F2D340044AD35CD840E2
:101E1800704700BF4000002000100240145A00081C
:101E2800084B1868084B5B684FF4605203F4605322
:101E380092FAA2F2B2FA82F2D340044AD35CD840B2
:101E4800704700BF4000002000100240145A0008EC
:101E58000F2303600B4B5A6802F0030242605A6872
:101E680002F0F00282605A6802F4E062C2605B68C5
:101E7800DB0803F4E0630361034B1B6803F007030B
:101E88000B607047001002400020024003682DE9F3
:101E9800F7430546D80320D5514CE369D90044D40B
:101EA800E36943F08053E361E36903F080530193EE
:101EB800019B01264B4F3B68DA0538D5236A13F49A
:101EC800407348D1236A6A6823F44073134323623A
:101ED8001EB1E36923F08053E3612B68D80706D568
:101EE8003F49A8680A6B22F0030202430A63990675
:101EF80006D53B49E8680A6B22F0100202430A63E0
:101F08001A0606D536492869CA6A22F4F8720243C5
:101F1800CA6213F4805306D0314A6969136B23F4FB
:101F280080730B431363002012E00026C2E73B686E
:101F380043F480733B60FEF77DFD80463B68DB051C
:101F4800BCD4FEF777FDA0EB08006428F6D903207F
:101F580003B0BDE8F0836A6802F440729A42B1D0D7
:101F6800216A4FF4803221F4407092FAA2F21E4B9B
:101F7800B2FA82F21A449200012717604FF48032B5
:101F880092FAA2F21F46B2FA82F33B449B00002267
:101F9800CF071A60206295D5FEF74CFD02278046D0
:101FA800B94697FAA7F397FAA7F3ABB1216A99FA5A
:101FB800A9F3B3FA83F303F01F03012202FA03F330
:101FC8000B427FF47FAFFEF735FD41F28833A0EB7B
:101FD80008009842E5D9BAE797FAA7F3616AE6E7F5
:101FE80000100240007000400081901003689A6859
:101FF800D20410B504460AD5DB68D90507D501F027
:1020080017FD2268D368DBB263F4C073D36023681A
:102018009A6892040BD5DB689B0508D5204600F02A
:102028000FF82268D368DBB263F42073D360034BE4
:102038004FF400325A610123637710BD0004014058
:1020480070470000036A23F001030362036A70B556
:10205800446882690D6822F4803222F073022A43B0
:102068008D6823F002032B43174DA8420BD005F5CA
:10207800A055A84207D005F58065A84203D005F50C
:102088008065A8421AD1CD6823F008032B430E4D72
:10209800A84223F004030BD005F5A055A84207D0A9
:1020A80005F58065A84203D005F58065A84205D1ED
:1020B80024F44075D1E9054634432C4344608261D9
:1020C8004A684263036270BD002C0140036A23F42E
:1020D80080730362036A426870B5C4690D6824F4AA
:1020E800803424F073042C438D6823F4007343EA8E
:1020F8000523114DA8420ED1CD6823F4006343EAAD
:10210800052323F48063D1E9055622F44052354370
:1021180042EA051209E0094DA842F4D0084DA84248
:10212800F1D005F58065A842EDD042604A68C461E7
:10213800C263036270BD00BF002C01400040014033
:1021480000440140036A23F480530362026A30B5F5
:102158004468C3690D6823F0807323F4E64343EAB7
:1021680005238D6822F4005242EA05320C4DA8423C
:102178000BD005F5A055A84207D005F58065A84203
:1021880003D005F58065A84204D14D6924F4804444
:1021980044EA85144460C3614B680364026230BD3D
:1021A800002C0140036A23F480330362026A30B5CD
:1021B8004468436D0D6823F4803323F070032B4388
:1021C8008D6822F4003242EA05420D4DA8420BD038
:1021D80005F5A055A84207D005F58065A84203D0AB
:1021E80005F58065A84204D14D6924F4803444EA99
:1021F8000524446043654B688365026230BD00BFB7
:10220800002C0140036A23F480130362026A30B58C
:102218004468436D0D6823F0807323F4E04343EA78
:1022280005238D6822F4001242EA05520C4DA8429B
:102238000BD005F5A055A84207D005F58065A84242
:1022480003D005F58065A84204D14D6924F48024A3
:1022580044EA8524446043654B68C365026230BD27
:10226800002C01400223026880F83D309168084B39
:102278000B40062B06D0B3F5803F1EBF136843F012
:1022880001031360012380F83D300020704700BF30
:10229800070001007047704703681A69910710B575
:1022A80004460FD5DA6892070CD56FF002021A615E
:1022B800012202779B69990700F0858002F0C4FC2F
:1022C8000023237723681A69520710D5DA68500764
:1022D8000DD56FF004021A61022222779B6913F46C
:1022E800407F204675D002F0AFFC00232377236897
:1022F8001A6911070FD5DA6812070CD56FF00802B2
:102308001A6104222277DB699B07204667D002F016
:102318009BFC0023237723681A69D00610D5DA6856
:10232800D1060DD56FF010021A6108222277DB69F9
:1023380013F4407F204658D002F086FC0023237710
:1023480023681A69D20708D5DA68D00705D56FF06F
:1023580001021A61204602F04BFC23681A69110633
:1023680008D5DA68120605D56FF080021A61204692
:1023780000F0D5FA23681A69D00508D5DA6811067D
:1023880005D56FF480721A61204600F0C9FA2368F7
:102398001A69520608D5DA68500605D56FF040026A
:1023A8001A612046FFF777FF23681A69910622D53C
:1023B800DA6892061FD56FF0200220461A61BDE840
:1023C800104000F0ABBA02F03DFC2046FFF762FF78
:1023D80076E702F037FC2046FFF75CFF85E702F05E
:1023E80031FC2046FFF756FF93E702F02BFC20460E
:1023F800FFF750FFA2E710BD214A0368904210B5CD
:1024080005D0B0F1804F02D01E4CA0420CD14C68D0
:1024180023F07003904243EA040310D0B0F1804FD8
:102428000DD0184A90420AD0174A904207D002F5B8
:102438008062904203D002F58062904203D1CA685C
:1024480023F4407313434A6923F080031343036062
:102458008B68C3620B688362094B98420BD003F503
:10246800A053984207D003F58063984203D003F540
:102478008063984201D10B6903630123436110BD56
:10248800002C0140000400400040014010B5044603
:10249800A0B190F83D3003F0FF021BB980F83C2052
:1024A80001F066FC0223206884F83D30211DFFF707
:1024B800A3FF012384F83D30002010BD0120FCE774
:1024C800036A23F010030362036A426870B58469E3
:1024D8000D6824F0807424F4E64444EA05248D68E9
:1024E80023F0200343EA0513104DA8420ED1CD680E
:1024F80023F0800343EA051323F04003D1E905568E
:1025080022F44062354342EA850209E0084DA842B8
:10251800F4D0084DA842F1D005F58065A842EDD069
:1025280042604A6884618263036270BD002C014086
:10253800004001400044014010B590F83C30012BA8
:1025480004464FF0020012D001230C2A84F83C30D4
:1025580084F83D0020D00BD8042A15D0082A17D0BB
:1025680072B10123002084F83D3084F83C0010BD8E
:10257800102A15D0142AF4D12068FFF743FEF0E79B
:102588002068FFF75FFDECE72068FFF799FFE8E7B1
:102598002068FFF79BFDE4E72068FFF7D3FDE0E73D
:1025A8002068FFF7FFFDDCE738B590F83C30012BD9
:1025B80004464FF0020012D001230C2A84F83C3064
:1025C80084F83D0054D00BD8042A2FD0082A3ED0D6
:1025D800DAB10123002084F83D3084F83C0038BD8E
:1025E800102A56D0142AF4D12068FFF70BFE23686E
:1025F80009695A6D42F400625A655A6D22F4806284
:102608005A655A6D42EA012252E02068FFF71AFD26
:10261800236809699A6942F008029A619A6922F066
:1026280004029A619A690A439A61D2E72068FFF71F
:1026380047FF236809699A6942F400629A619A69B6
:1026480022F480629A619A6942EA0122ECE72068E2
:10265800FFF73CFD23680969DA6942F00802DA618C
:10266800DA6922F00402DA61DA690A43DA61B0E76A
:102678002068FFF767FD23680969DA6942F4006298
:10268800DA61DA6922F48062DA61DA6942EA0122FF
:10269800ECE72068FFF786FD236809695A6D42F068
:1026A80008025A655A6D22F004025A655A6D0A43A7
:1026B8005A658EE770B5046A124E24F0010404626C
:1026C800B0428469056A19D0B0F1804F16D0A6F5DA
:1026D8009436B04212D006F59E36B0420ED044F081
:1026E80001021B0122F0F002DBB2134301F00A01E0
:1026F80025F00A0211438361016270BD24F00304CE
:102708002243EEE7002C0140F8B590F83C30012B4D
:1027180004460E4615464FF002001AD0012384F8ED
:102728003D0084F83C30D1E900122068F3688DB987
:10273800FFF7C0FF2368B1689A6922F00C029A611A
:102748009A690A439A610123002084F83D3084F88D
:102758003C00F8BD042DB66822D1056A25F01005A5
:1027680005628769D0F820E027F4407C1D034CEA15
:10277800022C09012CF4704CADB22EF0A00E01F021
:10278800A00145EA0C0541EA0E01856101628369F1
:1027980023F440638361836943EA06268661D2E7AE
:1027A800082D056A1CD125F480750562C769056A7C
:1027B80027F0030717431B010902DBB227F0F007D4
:1027C80025F4206501F420611F432943C761016294
:1027D800C36923F00C03C361C3691E43C661B2E732
:1027E80025F480550562C569076A25F4407545EAF0
:1027F80002251B03090325F470459BB227F42047E3
:1028080001F420412B433943C3610162C36923F4B6
:102818004063C361C36943EA0626DFE7036A01F040
:102828001F0110B501248C4023EA04030362036AE4
:102838008A401A43026210BD10B50446012200689E
:10284800FFF7ECFF2368104A93420BD002F5A05221
:10285800934207D002F58062934203D002F580626A
:10286800934203D15A6C42F400425A649968074A69
:102878000A40062A06D0B2F5803F1EBF1A6842F009
:1028880001021A60002010BD002C01400700010061
:10289800FFF7D2BF10B5044601220068FFF7BEFF5C
:1028A8002268074B91680B40062B06D0B3F5803F92
:1028B8001EBF136843F001031360002010BD00BF62
:1028C80007000100036A01F01F0110B504248C40C1
:1028D80023EA04030362036A8A401A43026210BDB2
:1028E80010B5044604220068FFF7ECFF23685A6C11
:1028F80042F400425A649968064A0A40062A06D0F9
:10290800B2F5803F1EBF1A6842F001021A6000202B
:1029180010BD00BF07000100FFF7E2BF7047704716
:10292800704703681A6822F490721A609A6822F055
:1029380001029A6020238367002303667047436F70
:10294800212B18D1B0F85220036892B242B91A6804
:1029580022F080021A601A6842F040021A6070473A
:10296800C26C12F8011B1985B0F85230C264013BE1
:102978009BB2A0F852307047436F212B1AD1B0F8A0
:102988005220036892B242B91A6822F080021A6093
:102998001A6842F040021A607047C26C32F8021B93
:1029A800C1F308011985B0F85230C264013B9BB2EB
:1029B800A0F8523070477047436F202B27D121B3BE
:1029C8001AB390F87030012B21D00023A0F85220C0
:1029D800C367212343678368C164B3F5805FA0F8A8
:1029E800502010D101690B4B0B4A002908BF134630
:1029F80001684366002380F870300A6842F080025C
:102A08000A6018467047034BF2E70120704702201E
:102A1800704700BF4729000881290008836F202BD1
:102A280010B54CD1002948D0002A46D090F8703013
:102A3800012B44D0012380F870308368A0F8582017
:102A4800A0F85A20B3F5805F4FF000024165026696
:102A580023D10269FAB940F2FF12A0F85C200022E3
:102A6800C2672222826702689168B3F5805F41F0ED
:102A7800010191601FD10469124B1349002C08BF52
:102A88000B460366002380F87030116841F490719A
:102A98001160184610BDFF22DFE723B90269002A3A
:102AA800F9D07F22D9E7B3F1805FD6D10269002A35
:102AB800F7D03F22D1E7034BE3E70120EAE7022002
:102AC800E8E700BFD52A00082D2B0008816F0268AF
:102AD800222910B521D1928C90F85C40416D22409A
:102AE8000A70426D01324265B0F85A20013A92B23A
:102AF800A0F85A20B0F85A2092B26AB901680C6856
:102B080024F490740C608C6824F001048C602021FB
:102B18008167026601F0E0FA10BD936943F008038B
:102B28009361F9E7816F0268222910B51FD1948C4F
:102B3800B0F85C100C40416D21F8024B4165B0F8CB
:102B48005A10013989B2A0F85A10B0F85A1089B24F
:102B580061B9146824F490741460946824F0010432
:102B6800946020228267016601F0B6FA10BD93696D
:102B780043F008039361F9E70368DA69196870B5E7
:102B880040F60F0632429D68044609D1960670D574
:102B98008E066ED5036E002B66D0BDE870401847D0
:102BA80005F0010001F49076064362D0D50707D5F9
:102BB800CE0505D501251D62E56F45F00105E567E0
:102BC800950706D528B102251D62E56F45F0040575
:102BD800E567560706D528B104251D62E56F45F05F
:102BE8000205E567150709D501F02005284305D03A
:102BF80008201862E06F40F00800E067160508D565
:102C08004D0106D54FF400601862E36F43F02003CE
:102C1800E367E36F43B3900605D5890603D5236EB2
:102C28000BB1204698472368E56F9B6805F0280597
:102C380003F040031D43204617D0FFF772FE2368B8
:102C48009A6852060DD59A68E06E22F040029A60A2
:102C580038B11A4B4363FEF73FFD28B1E06E436B72
:102C68009BE7204601F051FA70BD01F04EFAE56786
:102C7800FAE7D60209D5680207D54FF48012204634
:102C88001A62BDE8704001F08BBA160606D50D062B
:102C980004D5636E002BE7D020467EE75006E3D5C7
:102CA8004A06E1D51A6822F040021A6020236367B9
:102CB80000236366204601F013FAD5E7C92C000803
:102CC80008B5406A0023A0F85A30A0F8523001F045
:102CD8001CFA08BD90F87030012B11D024234367EB
:102CE80003681A6822F00C021A601A6842F0080297
:102CF8001A6020234367002380F870301846704715
:102D08000220704790F87030012B11D024234367BC
:102D180003681A6822F00C021A601A6842F004026A
:102D28001A6020234367002380F8703018467047E4
:102D380002207047426F806F1043704738B5C169F1
:102D4800036882681D68044600690243606902439B
:102D580055480A43284002431A605A68E068256AC1
:102D680022F4405202435A609868A26920F4306005
:102D78002A4302439A604D4A934214D14C4B1B6B31
:102D880003F00303013B022B14D84A4AB1F5004F64
:102D9800D35C58D1082B4BD8DFE803F02136394AE9
:102DA800424A4A4A4500444A934203D002F58062A7
:102DB800934273D1B1F5004F11D0FFF719F863684A
:102DC80000EB5300B0FBF3F39BB20020A3F110011A
:102DD8004FF6EF72914212D82268D36010E0FFF7E5
:102DE80007F863685A0802EB4000B0FBF3F39BB2A4
:102DF8000020A3F110014FF6EF7291421BD9012078
:102E08000023C4E9183338BDFFF70AF8E9E7626818
:102E1800530803F5740303F51053B3FBF2F3E6E725
:102E2800FEF714FFDDE76268530803F58033F4E723
:102E380001200023DDE723F00F022168C3F34203DA
:102E48001343CB60DCE7082B2BD801A252F823F000
:102E5800C32D00087D2E0008832E0008AB2E000825
:102E6800952E0008AB2E0008AB2E0008AB2E0008EC
:102E78009B2E0008FEF7D4FFA1E76268530803F50C
:102E8800F40303F59053B3FBF2F39DE7FEF7DEFE80
:102E980095E76268530803F50043F4E7B1F5004F7E
:102EA800C6D00120002391E7F369FFEF0038014005
:102EB800001002403B59000800440040436ADA070A
:102EC80010B506D50168846A4A6822F400322243A4
:102ED8004A609C0706D50168C46A4A6822F48032B1
:102EE80022434A60590706D50168046B4A6822F4F0
:102EF800802222434A601A0706D50168446B4A6853
:102F080022F4004222434A60DC0606D50168846B3D
:102F18008A6822F4805222438A60990606D501689D
:102F2800C46B8A6822F4005222438A605A060FD57D
:102F38000168046C4A6822F480122243B4F5801FA9
:102F48004A6005D14A68446C22F4C00222434A60B0
:102F58001B0606D50268816C536823F400230B43D3
:102F6800536010BD2DE9F041DDF8188004460E4687
:102F780015461F462268D36936EA03030CBF0123AE
:102F88000023AB4201D000201AE0B8F1FF3FF2D095
:102F9800FDF750FDC01B40452068036802D8B8F112
:102FA800000F0FD123F4D0730360836823F001036B
:102FB800836020236367A367002384F870300320AD
:102FC800BDE8F0815A07D5D5C3691B05D2D54FF4A2
:102FD80000630362036823F4D0730360836823F0FB
:102FE8000103836020236367A367E367E4E730B5E1
:102FF8000446002585B0C567FDF71CFD22681268E8
:103008001107034614D422681268520709D56FF0D5
:103018007E4200924FF4800100222046FFF7A2FF73
:1030280098B920230020636784F87000A3670DE037
:103038006FF07E42009203902A464FF4001120461A
:10304800FFF790FF039B0028DDD0032005B030BDBB
:1030580010B5044640B3436F1BB980F87030FFF7D2
:10306800AAFC226824236367136823F00103136012
:103078002046FFF763FE012816D0636A13B1204685
:10308800FFF71CFF23685A6822F490425A609A6836
:1030980022F02A029A601A6842F0010220461A6059
:1030A800BDE81040FFF7A3BF012010BD10B50446CE
:1030B80060B3436F1BB980F87030FFF77CFC22685F
:1030C80024236367136823F0010313602046FFF786
:1030D80035FE01281AD0636A13B12046FFF7EEFEC9
:1030E80023685A6822F490425A609A6822F02202B1
:1030F8009A609A6842F008029A601A6842F00102DF
:1031080020461A60BDE81040FFF771BF012010BDCE
:1031180086B0042842D8DFE800F003111D293500E5
:103128001F4B5A6942F400325A615B6903F4003359
:103138000193019B4FF0904006B07047184B194817
:103148005A6942F480225A615B6903F4802302932E
:10315800029BF1E7124B14485A6942F400225A6163
:103168005B6903F400230393039BE5E70C4B0F48CB
:103178005A6942F480125A615B6903F4801304931C
:10318800049BD9E7064B0A485A6942F480025A61FF
:103198005B6903F480030593059BCDE70020CBE72B
:1031A800001002400004004800080048000C0048D5
:1031B8000014004808B5064900F02CFCC0F3C430E0
:1031C800831E022B9ABF80000438002008BD00BF70
:1031D800045B00080368114A934282B010D1104B77
:1031E800DA6942F00052DA61DB6903F000530093B8
:1031F800009B0C4B0C49B3F9000002B000F0C6BBB1
:103208000A4A9342F5D1064BDA6942F08062DA61E4
:10321800DB6903F080630193019BEAE700740040D7
:10322800001002403C000020D45A000800980040DA
:10323800F0B589B004460E4617460021142203A8AB
:1032480002F04EF900231B4902932046CDE90033D2
:1032580000F0BCFB039050B31649204600F0DAFB9F
:10326800C0F3C430022814BF00251025012F0BD04D
:1032780033460022294603A8FEF7C8F9B8B92946FB
:1032880003A8FEF7D5F912E003A8FEF7A5F970B96F
:10329800094B03A81C80FEF78CF940B9CDE9000062
:1032A8002A46694603A8FEF7E9F90028E0D009B0E4
:1032B800F0BD00BFD45A00083C0000200368144A3F
:1032C800934282B00ED1134B1A6942F000521A6130
:1032D8001A6922F000521A61DA6922F00052DA61A2
:1032E80002B070470C4A9342FAD10A4B1A6942F06D
:1032F80080621A611A6922F080621A61DA6942F002
:103308008062DA61DB6903F080630193019BE7E780
:1033180000740040001002400098004010B50C49AD
:1033280086B0044600F052FB019078B10849204667
:1033380000F070FBC0F3C43002280CBF102100213C
:1033480001A8FEF757F901A8FEF746F906B010BD27
:10335800D45A00080368B3F1A04F84B01ED103F11A
:10336800704303F504335A6942F080525A615A692E
:1033780002F080520092009A5A6942F080525A61D3
:103388005B6903F080530193019B114BB3F9000073
:10339800C3051AD40F4904B000F0F8BA0E4A934294
:1033A800F3D10E4B5A6942F080525A615A6902F0C1
:1033B80080520292029A5A6942F080525A615B69BD
:1033C80003F080530393039BDFE704B0704700BF0B
:1033D8003C000020505A0008000100500010024034
:1033E8000368B3F1A04F19D10E4B9A6A42F080528C
:1033F8009A629A6A22F080529A629A6A42F08052DD
:103408009A629A6A22F080529A625A6922F080522D
:103418005A615A6922F080525A6102E0024A934284
:10342800E2D070470010024000010050F0B59DB096
:10343800064650220D4608A8002102F051F8002146
:10344800182202A802F04CF80024F105ADF8064055
:10345800B3B20FD5B6F5827F0CDA4FF0A0420892CE
:103468006FF4807213449BB2022B01D8424AD45C99
:10347800072710E04149304600F0A8FA3F49089074
:10348800304600F0C7FAC0F3C434631E112B4FF066
:10349800040788BF0024089B13B900201DB0F0BDA5
:1034A8004FF44033082D09935FD00A2D5FD0062DC5
:1034B8005FD1182301250A930023CDE90B33CDE909
:1034C8001135ADF838308DF8403013938DF8503001
:1034D8001593189316938DF85C30294B0F95042299
:1034E80008A80D921E80FDF769FB0028D5D102942B
:1034F800013C112CD1D8CDE90500079002A908A8F4
:10350800CDE90357FDF74EFE01460028C5D108A8AE
:10351800FDF705FE0028C0D108A8FDF701FD002829
:10352800BBD10A2108A8FDF781FD0028B5D108A85C
:10353800FDF786FA830505D508A8FDF7EDFD80B2ED
:10354800ADF8060008A8FDF751FD0028A5D108A888
:10355800FDF72AFC0028A0D10A4A936823F0E073FB
:103568009360BDF8060080B298E71023A2E708230D
:10357800A0E700239EE700BF3E590008505A000804
:103588003C000020000300502DE9F34789462549F7
:10359800254C98461746064600F018FA01F052F9ED
:1035A80054F8203005467BB91E49304600F00EFA23
:1035B8000190A82001F03BFD0199824601F098F99D
:1035C80054F82530C3F800A054F8253015491C6874
:1035D800304600F01FFAC0F3C4352946204601F0F2
:1035E80029F90528824605D0334605222946204672
:1035F80001F06EF802224946204601F003FA4346DC
:103608003A462946204601F01FFABAF1050F05D0BF
:10361800204602B0BDE8F04701F038B802B0BDE876
:10362800F08700BF045B0008E004002073B515496B
:10363800154C064600F0CAF901F004F954F8203098
:10364800054673B90F49304600F0C0F90190A8202B
:1036580001F0EDFC0199064601F04AF954F82530CD
:103668001E6054F825301C684CB1204601F020F942
:10367800A821204602B0BDE8704001F0DABC02B0D3
:1036880070BD00BF045B0008E0040020FDF7D2B95C
:10369800704708B5FDF7C2F9FDF787FFFFF7F8FF98
:1036A80008BD00000B4BDA68D2015EBFDA6842F051
:1036B8008072DA60084B00225A601A6842F00102F0
:1036C8001A6000BF00BF00BF5868B0FA80F0400918
:1036D800704700BFF0ED00E0001000E008B5FFF70C
:1036E800E1FFFDF789F9BDE8084000F089BD83686E
:1036F80010B5044613B1032201469847204610BD71
:103708000023012803F1010202D040081346F8E71C
:103718001421DBB24B43044A181D1044816811B1CF
:103728001A441369184770472C0200200120FDF73E
:10373800F5BF0220FDF7F2BF0820FDF7EFBF10200C
:10374800FDF7ECBF38B505242025A8B2FDF7E6FF44
:10375800013C4FEA4505F8D138BD38B506244FF489
:103768008065A8B2FDF7DAFF013C4FEA4505F8D1BC
:1037780038BD0000204B07211975082183F828104F
:10378800092183F83C100A21062283F850101721DA
:103798001A7083F86410002283F8781083F88C106C
:1037A80083F8A01083F8B4102821DA601A625A63EB
:1037B8009A64DA651A67C3F88420C3F89820C3F8B6
:1037C800AC20C3F8C02083F8C810C3F8D42083F80D
:1037D800DC10C3F8E82083F8F010C3F8FC2083F865
:1037E8000411C3F8102183F81811C3F8242183F8B1
:1037F8002C11C3F8382170472C02002038B5054C2D
:10380800A4F5A075143C201DFFF771FFAC42F9D157
:1038180038BD00BF6C03002030B5C46891FAA1F32D
:10382800B3FA83F303255B0005FA03F324EA0303E1
:1038380091FAA1F1B1FA81F149008A401343C360BA
:1038480030BD431C04D00C3131F90C3C5A1C01D159
:1038580000207047834201F10C01F5D10120704727
:1038680000F00F02474B2DE9F041C0F303141FFA93
:1038780080F8013053F822500E4601F0070703D1B3
:103888004148482100F0E6F82046FFF741FC8368EC
:10389800044695FAA5F2B2FA82F20321520001FA1F
:1038A80002F223EA020195FAA5F3B3FA83F35A0068
:1038B800032393400B438360032F35D8DFE807F0D9
:1038C8001D1D021D18F0080FC6F3062217D0406A06
:1038D8002B0A93FAA3F1B1FA81F14FF00F0C89008A
:1038E8000CFA01F120EA010193FAA3F3B3FA83F386
:1038F8009B0002FA03F30B4363623B4619E0036A39
:1039080095FAA5F1B1FA81F10F20890000FA01F1C9
:1039180023EA010195FAA5F3B3FA83F39B0002FAAF
:1039280003F30B432362E8E717488D2100F092F870
:103938000023216895FAA5F2B2FA82F20320520018
:1039480000FA02F221EA020195FAA5F2B2FA82F22D
:1039580052009340013F0B43012F236005D8636851
:1039680032074CBF2B43AB436360C6F30112012AF5
:1039780002D0022A18BF002229462046BDE8F0419D
:10398800FFF74ABFC459000841590008431C06D133
:103998007047834202D18968FFF762BF0C31B1F9E1
:1039A80000305A1CF5D10248B92100F053B800BFC5
:1039B80041590008B1F900305A1C01D10020704764
:1039C800834201D1486870470C31F3E7431C01D0AA
:1039D800FFF7F0BF002070474B6813B94FF0FF3076
:1039E8007047834202D1B1F9000070470C31F3E708
:1039F80008B1FFF7F1BF4FF0FF307047B1F9003061
:103A08005A1C01D118467047834201D18868704713
:103A18000C31F3E7431C01D0FFF7F0BF7047884231
:103A280004D018B100290CBF014600210846704790
:103A3800034B1B6813B1034A10681847704700BF4F
:103A48006C030020900300200148FEF7CFBA00BFA6
:103A580070030020FEE700001549D1F8883043F4D0
:103A68007003C1F88830134B1A6842F001021A60DB
:103A78005868114A02405A601A6822F0847222F487
:103A880080321A601A6822F480221A605A6822F476
:103A9800FE025A60DA6A22F00F02DA62186B074AED
:103AA80002401A6300229A604FF000638B607047EF
:103AB80000ED00E0001002400CC07FF8CCFC00FFD5
:103AC800043870470368384A934288B018D102F521
:103AD8006442916941F400619161926902F4006263
:103AE8000092009A314A934237D1314B9A6942F495
:103AF80080329A619B6903F480330593059B15E036
:103B0800B3F1804F14D02B4A93421CD02A4A9342D7
:103B180031D02A4A9342E5D1254BDA6942F0200296
:103B2800DA61DB6903F020030493049B08B0704753
:103B38001F4AD16941F00101D161D26902F0010245
:103B48000192019ACEE71A4AD16941F00201D16186
:103B5800D26902F002020292029A194A934214D1DF
:103B6800134B9A6942F400329A619B6903F400335B
:103B78000693069BDAE70E4AD16941F01001D1613C
:103B8800D26902F010020392039A0E4A9342CDD1F1
:103B9800074B9A6942F480229A619B6903F4802357
:103BA8000793079BC2E700BF002C0140004001407B
:103BB80000100240000400400010004000140040C3
:103BC80000440140004801400368224A93420DD155
:103BD80021498A6922F400628A61204A934222D1EB
:103BE8001D4A936923F4803393617047B3F1804F82
:103BF8000ED01B4A934211D01A4A93421BD01A4A3C
:103C08009342EAD1144AD36923F02003D361704761
:103C18001149CA6922F00102CA61DEE70E49CA6980
:103C280022F00202CA61114A934209D10A4A9369F1
:103C380023F40033D8E70849CA6922F01002CA61A0
:103C48000B4A934200D07047034A936923F48023B8
:103C5800CAE700BF002C01400010024000400140AC
:103C680000040040001000400014004000440140DF
:103C78000048014008B5431C014611D0184B984232
:103C880024D010D8A3F58053984221D003F540637F
:103C980098421FD0B0F1804F1ED01248FFF7DAFECD
:103CA8006FF00D0008BD104B984217D009D8A3F546
:103CB800C053984212D003F5A0539842EDD1182072
:103CC800F0E70A4B9842E8D11A20EBE73720E9E7FA
:103CD8001D20E7E73620E5E71C20E3E71920E1E7A8
:103CE800001400401C5A00080044014000480140EC
:103CF80008B5431C014612D0194B984224D016D857
:103D0800A3F58E33984221D00CD8B0F1804F1FD044
:103D1800A3F5406398421DD01248FFF79BFE6FF051
:103D28000D0008BD104B9842F6D13720F9E70F4B2C
:103D3800984211D003F5806398420FD0A3F5006331
:103D48009842E9D11820ECE71B20EAE73620E8E79B
:103D58001C20E6E71D20E4E71920E2E71A20E0E747
:103D6800002C01401C5A0008001400400044014087
:103D780038B50446FFF7A6FE0068FFF77BFFD4E9D5
:103D88001012FDF797FB2068FFF774FFFDF7C4FBDF
:103D98002068FFF7ADFF05462068FFF76BFF8542F7
:103DA8000DD02068FFF7A4FFD4E91012FDF782FBBD
:103DB8002068FFF79DFFBDE83840FDF7ADBB38BD73
:103DC80008B5431C014610D0114B98421BD011D89E
:103DD800A3F58E33984218D009D820F48063B3F144
:103DE800804F12D00B48FFF735FE002008BD0A4B64
:103DF8009842F6E7094B984205D020F48062A3F573
:103E080000639A42EED10220F0E70120EEE700BFFE
:103E1800002C0140345A00080014004000480140BA
:103E28002DE9FF4704468946B0F98C004A49DDF878
:103E380030A090461F46FFF7C9FD48490546B4F92A
:103E48008E00FFF7C3FD0646002D00F08180B4F90F
:103E58008E30013301D000287AD031462846FFF74A
:103E6800DEFD2060002873D03D4B98423AD103F51F
:103E78005843DA6842F48042DA60DA6822F4804211
:103E8800DA609A6942F480429A619B6903F480433C
:103E98000193019B2523A4F890302F49B4F98C0095
:103EA800FFF774FD26B12D49B4F98E00FFF76EFDBA
:103EB80094F891202B4B6761201D43F8220023685A
:103EC8000C22C4E901390023C4E9038AC4E90623A2
:103ED800C4E909332362002E35D104B0BDE8F047A8
:103EE800FFF7E4B8204B984215D103F5E6331A6979
:103EF80042F400321A611A6922F400321A61DA694E
:103F080042F40032DA61DB6903F400330293029B66
:103F18004FF49373BFE7154B9842BED1144D2B69EC
:103F280043F480232B612B6923F480232B61EB69F5
:103F380043F48023EB61EB6903F480230393039B31
:103F480040F22723A7E704B0BDE8F047FFF780B8A1
:103F580004B0BDE8F08700BF6C5C0008245C000872
:103F6800003801409403002000440040004800400D
:103F78000010024008B1FFF753BF704708B5074B60
:103F880090F8912053F82200FEF7D4FE00F02200AA
:103F9800A0F122035842584108BD00BF94030020F5
:103FA80008B5074B90F8912053F82200FEF7C2FE9F
:103FB80000F02100A0F121035842584108BD00BF7C
:103FC8009403002070B50E46054610B94FF0FF3037
:103FD80070BDFFF7D3FF04460028F7D12946012218
:103FE80011F8923F337095F89100034B53F8200075
:103FF800FEF714FD2046EBE79403002070B50E464B
:104008000446F8B1FFF7BAFF0546D8B994F990000D
:10401800C4F88460FDF78EFA94F891000A4B04F115
:10402800920153F820000122FEF7F8FC94F9900061
:104038002A460121FDF73EFA94F99000BDE8704048
:10404800FDF76ABA70BD00BF9403002010B504469E
:10405800F8B1C0F8881090F99000FDF76BFAD4F821
:104068009830B4F8A21094F8910013FA81F1094B32
:10407800012253F82000FEF79FFC94F990000022DB
:104088000121FDF717FA94F99000BDE81040FDF7FB
:1040980043BA10BD9403002050B1B0F98E300133FB
:1040A80006D190F89120034B53F82200FEF712BE78
:1040B800704700BF9403002050B1B0F98E3001332F
:1040C80006D190F89120034B53F82200FEF71ABE50
:1040D800704700BF94030020D0F880300438184798
:1040E80010B5D0F8843004460438984701300BD016
:1040F800B4F89E10D4F8943020460122BDE8104050
:1041080013FA81F1FEF758BC10BD0368DA69D207CB
:1041180010B504460DD501221A62201FFFF72EFFA5
:10412800B0B904F18E0120460122BDE81040FEF727
:1041380075BCDA69900701D50222EDE7DA69510703
:1041480001D50422E8E7DA691207E6D50822E3E791
:1041580010BD000008B52520FDF716FA024B1868B7
:10416800BDE80840FEF708BD9403002008B52620E6
:10417800FDF70AFA024B5868BDE80840FEF7FCBC98
:104188009403002008B52720FDF7FEF9034B986833
:1041980018B1BDE80840FEF7EFBC08BD9403002045
:1041A800012200F18E01FEF739BC000010B50A4C5F
:1041B80022681318EFF308818B4206D9074B0C22AB
:1041C8001A604FF0FF32104610BD05490548091A1C
:1041D8008B42F3D22360F6E744000020200500203C
:1041E8000030002000040000FEE70000024B162209
:1041F8001A604FF0FF3070472005002001207047FB
:1042080030B5012397B010250224CDE910350021DF
:104218004FF460130CA8CDE914130C941394FDF714
:1042280089FA00B1FEE70F23CDE901344FF480632A
:10423800CDE904300390214601A8FDF739FD00B10E
:10424800FEE7A023069306A84FF48073CDE909532F
:10425800FDF71CFE00B1FEE717B030BDB0F8A23084
:10426800013303F03F03A0F8A230B0F8A230B0F851
:104278009E009BB298424FF0FF3018BF0020704755
:10428800B0F83431B0F83001181A00F03F00704728
:10429800B0F83431B0F830219BB293421ABFD0F84D
:1042A8002831985C4FF0FF30704713B50DF10701C6
:1042B8000446FFF787FE98B9B4F8A030B4F89C20FC
:1042C800013303F03F0393420AD0B4F8A020D4F896
:1042D80094109DF8070092B29BB28854A4F8A030BD
:1042E80002B010BD012370B50374B0F92231013357
:1042F80004460E4600F1940508D190F838312BB1E8
:10430800002380F838312846FFF7C6FEB4F832118A
:104318004B1C03F03F03B4F8362192B29342FAD013
:10432800D4F82C2128465654A4F83231FFF738FE29
:1043380018B903492846FFF789FE012070BD00BF60
:1043480065420008037C33B1B0F83221B0F8363149
:104358009BB29A42FAD1704700F11103914208BF0B
:104368004FF0FF31A0F82021C0F8283100F15102A8
:104378000023A0F83431C0E94B23A0F82211A0F89B
:104388003631704770B54FF47A7316460022C0E98B
:104398000123184B03604FF6FF73A0F82231164B28
:1043A800984204460D4617D1144B9A8DA0F8222145
:1043B800134AD26933F81230A0F82031012E04BF15
:1043C8004FF6FF73A4F822312046B4F92021B4F93E
:1043D8002211FFF7C1FF70BD0A492846FFF708FB05
:1043E8000949A4F822012846FFF702FBA4F8200196
:1043F800E4E700BF945D0008A0030020D05C00083B
:10440800A85C0008245C00086C5C0008B0F9223144
:10441800013310B504460ED103685B69984794F8D8
:10442800383143B9012384F8383104F19400BDE8E8
:104438001040FFF741BE10BD02F00703023BDBB29C
:10444800042B2DE9F7430E46C0F83C1198BF1F49CD
:1044580080F8392198BFCC5C02F0300388BF002473
:10446800302B054624D101344FF4C06712F0080FF1
:10447800A4F1070314BF4FF400594FF00009022BB1
:104488001DD8134A52F82340CDF8009005F194083E
:1044980031463B4622464046FFF76CFD2846FFF76B
:1044A800B5FF0C49404603B0BDE8F043FFF7A6BD91
:1044B80012F020071CBF01344FF48067D6E7064886
:1044C8004FF4C171FFF7C6FADEE700BF785D000858
:1044D800805D0008B3420008FE5C000810B5044681
:1044E800FFF794FFB4F83421B4F8303192B29A420D
:1044F8001FBFD4F82821D05C013303F03F0314BF59
:10450800A4F830314FF0FF3010BD000002490348D5
:104518000022FFF737BF00BF00440040A00300207F
:10452800836810B504462BB103220146984700233F
:10453800C4E90233204610BD4B1E032B9ABF8800E6
:1045480004384FF0FF3070470139435C2BB1022922
:1045580007D8054B33F811007047032901D8034BDE
:10456800F8E74FF0FF3070472E5E0008345E000811
:104578002DE9F04104460F46FFF7DEFF431C0546D0
:1045880004D13F4840F24D11FFF764FA7E1E032E16
:1045980028D83C4B13F8068039462046FFF7D4FF4D
:1045A800013004D1364840F25711FFF753FA04EBB3
:1045B80007175837BB683BB123696FEA08021A61CD
:1045C800DA6842EA0802DA6004EB46039B88013B9A
:1045D8000B2B4BD8DFE803F01B1B1B1B0E0E1B1B02
:1045E8004C4C4C2826484FF4A9714FF0FF38FFF780
:1045F80031FAD1E7A35D04F1100029461BB1BDE8EB
:10460800F041FEF789B9BDE8F041FEF741B9A35D75
:1046180004F1100029461BB1BDE8F041FEF760B96E
:10462800BDE8F041FEF708B9294604F11000FEF78D
:1046380031F9032E98BF144B256994BF9A574FF050
:10464800FF3211462046FFF77FFF2B6A1843BB68ED
:1046580028625BB1013A032A9ABF0A4B9A5C4FF071
:10466800FF32D3432B61EB681343EB60BDE8F08165
:10467800294604F11000BDE8F041FEF70BB900BF70
:10468800B45D00083C5E0008405E0008036E10B58B
:10469800044653B150F8103F6FF001021A61DA680E
:1046A80042F00102DA60FDF7DDFD20460121FFF747
:1046B8005FFF20460221FFF75BFF20460321FFF73B
:1046C80057FF20460421BDE81040FFF751BF000006
:1046D8002DE9F0418CB00E46054690461F46FFF77F
:1046E8002BFF411C044604D14F4840F24D21FFF7EF
:1046F800B1F9013E05EB4603A3F804804FF6FF73BA
:1047080005932B69D4B95B6B069300204FF6FF72B3
:104718000123CDE90900CDE90123CDE90300079084
:1047280008900B90B8F10C0F26D8DFE808F018189D
:104738001E3A3D3F484A4C4E56595B00042C01D165
:104748009B6BE1E7082C01D1DB6BDDE70C2C01D179
:104758001B6CD9E7102C0CBF9B6DDB6DD4E7059063
:10476800224605A905F1100004E01023059322460E
:1047780005A9E818FDF7E0FE7B1C0FD03846FEF7C8
:1047880019FDA0424AD129493846FFF7FFF82749C1
:104798003846FFF73FF9C0F30050A8550CB0BDE804
:1047A800F08120230593DBE73023FBE760232246D3
:1047B80005A905F110000593FDF7F6FEDCE7702367
:1047C800F5E75023EEE74023ECE70190224601A9E4
:1047D80005F11000FDF798FFCEE702230193F5E7F6
:1047E8000A23FBE705F1100801A90190224640467B
:1047F800FDF78AFF032E9ABF0D4B99574FF0FF31F3
:1048080005EB41030C225A8028460223CDE90133E7
:10481800FFF792FE01A902464046DBE7024840F254
:10482800B721FFF717F9B2E7B45D0008045B000889
:10483800405E0008013903299ABF00EB41008088D7
:1048480000207047164A904203461BD0B0F1804FB3
:104858001AD0A2F59432904218D002F540629042E4
:1048680016D002F58062904214D04FF6FF700D4AC0
:10487800934211D00C4A934210D00C4A934208BF7D
:10488800072070470020F2E70120F0E70220F1E757
:104898000320F2E704207047052070470620704780
:1048A800002C014000400140004401400048014004
:1048B800014670B5044651F8100FFFF7C3FF0546CF
:1048C8000846FFF781F9094A002342F8253004F128
:1048D8005806E36004F1A805B54204D0103D284607
:1048E800FEF705FFF8E7204670BD00BFE004002092
:1048F800F8B5002303660367C0F88030C0F890302D
:10490800C0F8A030044608460D46FFF79BFF4FF657
:10491800FF739842064603D11E482F21FFF79AF8E5
:104928001D4A256104F10C0342F8263000230E22AB
:1049380004F11006C4E90C33C4E90E33C4E910339A
:10494800C4E9142384F82C30A36484F84C3084F828
:104958004D30E4603046FFF7B5F804F1580504F12E
:10496800A80728461035FFF7DBFDBD42F9D1002323
:104978004FF6FF72C4E90033C4E90632C4E90833CC
:10498800A36063618023A3623046FDF77FFD204664
:10499800F8BD00BFB45D0008E004002030B587B062
:1049A80014220546002101A800F09AFD002469465A
:1049B80001A80094FDF74CFA2869FFF701FA0128CD
:1049C80009D0022815D00E4840F2FF41FFF742F8FF
:1049D800204607B030BD049CFDF70AFAB4F5C06F55
:1049E80005D00AD824F48074B4F5806FF1D1400062
:1049F800EFE7059CFDF714FAF0E7B4F5E06FF5E78B
:104A0800B45D0008012A38B505460C4607D0022ACD
:104A180012D004B1013C2B69DC62EC6138BDFFF7B0
:104A2800BDFF0849B0FBF1F044432B69210C9962A2
:104A38000131B4FBF1F4ECE7FFF7B0FFB0FBF4F49D
:104A4800F3E700BF40420F002DE9F04180461D46C4
:104A58001446FFF771FDD8F810309E6A431C0746CC
:104A680006F1010604D12A4840F2F621FEF7F2FFCA
:104A7800822D34D01ED8102D0BD865B1D8F810303F
:104A8800DA6A02FB04420124AC40013CB2FBF4F4B4
:104A980001E0812D19D0D8F81030DA6A4FF6FF718D
:104AA8008A4203D1B4F5803F08BF1446F7B95C6366
:104AB800BDE8F081832DEED1D8F81030DA6A02FB18
:104AC80004446422B4FBF2F4E5E74046FFF766FFCE
:104AD800104AB0FBF2F04443B4FBF6F4DBE740467F
:104AE800FFF75CFF7443B0FBF4F4D4E7042F01D163
:104AF8009C63DDE7082F01D1DC63D9E70C2F01D1D6
:104B08001C64D5E7102F0CBF9C65DC65D0E700BF9F
:104B1800B45D000840420F0010B5074C206810B182
:104B28000430FDF7B9FBA06920B1BDE8104004309E
:104B3800FDF7B2BB10BD00BFE0040020034B58686E
:104B480010B10430FDF7A8BB704700BFE004002097
:104B5800034B986810B10430FDF79EBB704700BF47
:104B6800E0040020034BD86810B10430FDF794BB73
:104B7800704700BFE0040020034B186910B10430EF
:104B8800FDF78ABB704700BFE0040020034B58695B
:104B980010B10430FDF780BB704700BFE00400206F
:104BA800034BD86910B10430FDF776BB704700BFDE
:104BB800E0040020826810B50AB900F03BFEBDE8A9
:104BC8001040C3681847000010B5044620B90748CC
:104BD80040F22641FEF73EFF2046FEF771FF0068CF
:104BE800036E13B15830FFF7E5FF10BDB45D000840
:104BF800FFF7EABF38B5054620B9114840F23941F8
:104C0800FEF728FF2B7F013B072B11D8DFE803F0C5
:104C1800150410111010101302242846FEF750FF37
:104C2800240100685834204483680BB1FFF7C2FFA1
:104C380038BD0324F1E70424EFE70124EDE700BFC2
:104C4800B45D0008FFF7D6BFFFF7D4BFF8B5054637
:104C58000E4617460024BC4207D02B68315D1B68FE
:104C68002846984708B10134F5E72046F8BD03689F
:104C78008A685B680968184710B5044600F07AFB33
:104C8800E06023682046DB689847002808DA00F0CF
:104C980071FBE368C01AA3689842F2D34FF0FF3063
:104CA80010BDF8B506460D4617460024BC4207D08D
:104CB8003046FFF7E1FF031E02DB2B550134F5E711
:104CC8002046F8BD2DE9F0410746884616461D46A0
:104CD80073B100243846FFF7CFFF031E05DB4345B9
:104CE80003D033550134A542F4D12046BDE8F08104
:104CF8001C46FAE710B50446006800F0DBFB2046C6
:104D080010BD10B50446006808B100F0D3FB0023BD
:104D1800C4E90133236010BD38B504460D46006868
:104D2800013100F08FFC10B1C4E90005012038BD45
:104D3800036810B5044623B143688B4201D30120B0
:104D480010BD2046FFF7E8FF0028F9D0A368002B24
:104D5800F5D122681370F2E770B50E461146044685
:104D68001546FFF7E5FF20B92046FFF7CAFF2046A2
:104D780070BD2068A560314600F07CFCF7E7002391
:104D880013B5C0E900330446836041B10846019178
:104D9800FBF7F6F9019902462046FFF7DDFF2046AA
:104DA80002B010BD38B5054600680C4638B1096830
:104DB80019B16A68A3689A420BD200F07BFB23689A
:104DC8002B6063686B60A368AB600023C4E90033A1
:104DD80004E000F04FFCA368AB600023A36038BD7B
:104DE800884210B5044605D00B682BB18A6819466D
:104DF800FFF7B2FF204610BDFFF783FFFAE710B5B3
:104E080000230446C0E900338360FFF7E9FF20462A
:104E180010BD884210B5044601D0FFF7C3FF2046F5
:104E280010BD13B5044659B108460191FBF7A8F91E
:104E3800019902462046FFF78FFF204602B010BDB9
:104E4800FFF75FFFF9E710B504468AB00023C4E90D
:104E58000033A360084601A900F0D5F801A920464F
:104E6800FFF7DFFF20460AB010BD70B505460E46B5
:104E780009B9002070BD6AB1846814442146FFF75F
:104E880057FF0028F5D02868AB683146184400F071
:104E9800F1FBAC600120EDE707B500238DF80410A5
:104EA800012201A98DF80530FFF7DFFF03B05DF897
:104EB80004FB1FB504460A220846694600F0A3F819
:104EC8006846FBF75DF9694602462046FFF7CDFFC5
:104ED80004B010BD13B5044629B92046FFF711FFE9
:104EE800204602B010BD08460191FBF749F9019927
:104EF80002462046FFF7B9FF0028EED0F0E710B5CC
:104F08000446FFF7D6FF10B92046FFF7FAFE204601
:104F180010BD8368934210B507D904680968A018C2
:104F280000F0B0FB08B1001B10BD4FF0FF30FBE7ED
:104F38000022FFF7EEBF00002DE9F0419A420E462D
:104F48001F460F4988BF13461446804684BF3C4617
:104F58001F46FFF714FFB568A5420DD9BD42336857
:104F680028BF3D4600225F5D5A55316840462144BE
:104F7800FFF757FF33685F554046BDE8F08100BF33
:104F88001A590008006808B100F064BA7047F0B513
:104F980003468BB069B3901E222832D80A2A06D15C
:104FA800002B04DA5B42012601AD28460EE00026FC
:104FB800FAE7B3FBF2F402FB1437092F2346FCB2DD
:104FC80094BF30345734E4B200F8014B002BF0D1D1
:104FD800A842EED00B4616B12D2203F8012B5C1E19
:104FE8000246AA4208D8421B854288BF00220020F8
:104FF800985408460BB0F0BD12F8016D04F8016F23
:10500800EFE70021F5E7FFF7C2BF08B50320FCF77B
:105018003FFABDE8084000F0CBB908B5AFF300800F
:10502800FBF7D6F8FBF730FB00F0B4F9FAE700F02D
:1050380039BA00F03FBA0000DFF834D0002103E0AD
:105048000C4B5B58435004310B480C4B42189A42A6
:10505800F6D30B4A02E0002342F8043B094B9A427C
:10506800F9D3FEF7F9FC00F0F9F9FFF7D6FFFEE7F0
:10507800003000204860000800000020C000002028
:10508800C000002030050020FEE791420FD008D96B
:10509800891A01238B40984208D30130C84001384F
:1050A800704720B10130511A8840F8E70020704756
:1050B80010B500F081F9431C0AD0064C2168FEF7B0
:1050C800B5F9054B21681A68BDE81040FFF7DDBF48
:1050D800002010BD480000205000002016282DE9AF
:1050E800F04105460E462AD8384B33F91040671C64
:1050F80069D03749374F2046FEF7A3FB50B3C4F3B6
:105108000311354A52F8210004F00F0320FA03F581
:10511800ED075FBF012505FA03F3034342F8213089
:10512800304639684FF00C0248BF0025FFF7ADFF45
:105138002A4601462046BDE8F041FEF779B8A0F1BD
:105148001803092B3FD8254A52F823201F4B33F95F
:105158001240CCE722492046FEF773FB8046F8B19F
:10516800C4F303111C4A52F8210004F00F0520FA79
:1051780005F3DB075FBF0123AB40034342F821304F
:10518800184B39681D6830462A46FFF77EFF1649D6
:105198000246EBB220460968BDE8F041FEF7F4B9D3
:1051A8002846012100F022F8396830460822FFF726
:1051B8006CFF7F2898BF4146284688BF0121BDE87B
:1051C800F04100F079B8BDE8F08100BFD05C00087C
:1051D800D45A00085800002000050020A85C0008E8
:1051E800045B00084C0000205400002016282DE91C
:1051F800F0410E4627D82A4B33F91040621C4CD098
:10520800284DC4F3031704F00F0855F8273023FA84
:1052180008F3DB0710D524492046FEF712FBE0B15E
:105228002046FEF77BF8012303FA08F255F82730E9
:1052380023EA020345F82730052E28D8DFE806F0D0
:1052480017231D1F21251838092826D8174B53F86E
:105258002020134B33F91240D0E715492046FEF7BA
:10526800F0FA0028DFD02046FEF7E0F9DBE700215E
:105278002046BDE8F041FEF7F3BA1021F8E72021F7
:10528800F6E70321F4E70121F2E70921F0E7BDE899
:10529800F04108484921FEF7DDBBBDE8F08100BFB9
:1052A800D05C000800050020D45A0008A85C00085B
:1052B800045B0008445E0008162814D8114B33F923
:1052C8001030C3F30312042A98BF0F4803F00F03EA
:1052D80098BF50F822200D4888BF002250F823308C
:1052E80071B193617047183809289DBF084B53F86E
:1052F8002020044B4FF0FF3398BF33F91230E0E71A
:1053080093627047D05C000828000020C459000848
:10531800A85C0008162814D8124B33F91030C3F3D0
:105328000312042A1AD8104903F00F0351F8222057
:105338000E49126951F8233093430CBF0120002015
:105348007047183809289DBF094B53F82020054B92
:105358004FF0FF3398BF33F91230E0E700231B69A1
:10536800FFDE00BFD05C000828000020C4590008F8
:10537800A85C0008FEF78AB938B5044648B1FEF7BC
:1053880085F9054600F016F8FEF780F9431BA3429D
:10539800F8D338BD08B5044B2BB10448FEF770FFAD
:1053A80008B1AFF3008008BD00000000A003002092
:1053B800FEF794B97047000009280CD8234B53F81E
:1053C8002030162B25D9A3F11802092A17D94FF036
:1053D800FF3318467047A0F11802092A16D81B4B4C
:1053E80053F82230162B14D9172BF0D9212BEED8CD
:1053F800164B53F82230092A98BFA3F11802134B11
:1054080053F82220124B33F9123005E0162806D83B
:1054180003460F4A32F913305A1CDAD101E0172833
:105428000AD824280BD025280CD0222840F20113B2
:1054380018BF4FF0FF33CCE72128F2D8D8E74FF454
:105448008173C6E740F20313C3E700BFA85C0008F6
:10545800D05C00080A22002100F0A6B970B50D4DF5
:105468000D4C641BA4100026A64209D10B4D0C4C10
:1054780000F02EFA641BA4100026A64205D170BDC8
:1054880055F8043B98470136EEE755F8043B984732
:105498000136F2E72060000820600008206000085C
:1054A80038600008024B0146186800F071B800BF68
:1054B8005C000020024B0146186800F019B800BFD4
:1054C8005C0000200A44914200F1FF3300D170478C
:1054D80010B511F8014B03F8014F9142F9D110BDF5
:1054E80002440346934200D1704703F8011BF9E7D1
:1054F80037B5002948D051F8043C0190002BA1F1A0
:105508000404B8BFE41800F05BF9204A0198136856
:10551800154633B96360146003B0BDE8304000F04D
:1055280055B9A3420BD921686218934204BF1A687F
:105538005B68636004BF521822602C60ECE71A466F
:105548005B680BB1A342FAD911685518A5420BD173
:10555800246821445418A3421160DDD11C685B689B
:10556800536021441160D7E702D90C230360D3E7C5
:10557800256861198B4204BF19685B68636004BFC2
:10558800491921605460C7E703B030BD14050020F5
:10559800F8B5CD1C25F0030508350C2D38BF0C25B2
:1055A800002D064601DBA94203D90C2333600020F5
:1055B800F8BD00F005F921490A6814469CB9204F46
:1055C8003B6823B92146304600F044F83860294644
:1055D800304600F03FF8431C23D10C23336030469B
:1055E80000F0F4F8E3E723685B1B17D40B2B03D90F
:1055F80023601C44256004E06368A2420CBF0B6072
:105608005360304600F0E2F804F10B00231D20F04F
:105618000700C21ACCD01B1AA350C9E722466468F7
:10562800CCE7C41C24F00304A042E3D0211A30467E
:1056380000F010F80130DDD1CFE700BF14050020DD
:1056480018050020024B0A460146186800F0C4B845
:105658005C00002038B5064D0023044608462B6040
:10566800FEF7A4FD431C02D12B6803B1236038BDAB
:1056780020050020034611F8012B03F8012B002A0E
:10568800F9D17047F0B50C7864B103461A7818461A
:105698005E1C0AB9104605E0944208D10D4615F87B
:1056A800012F02B9F0BD13F8017F9742F7D03346B6
:1056B800ECE700002DE9F0473A4E86468C466046F6
:1056C8001CF8014BA55D15F00805F8D12D2C33D138
:1056D8009CF800404FF0010800F1020C002B5CD050
:1056E800102B0CD1302C0AD19CF8000000F0DF0000
:1056F80058284DD19CF8014010230CF1020C08F1F8
:105708000047013F0026B7FBF3F9304603FB197A3F
:10571800A4F13005092D18D82C46A34224DD751CA8
:1057280007D081451DD301D1A2451ADB00FB0340F8
:1057380001261CF8014BEBE72B2C08BF9CF8004016
:10574800A84608BF00F1020CC8E7A4F14105192DCD
:1057580001D8373CE1E7A4F16105192D04D8573C7D
:10576800DBE74FF0FF36E4E7731C06D12223CEF8BF
:105778000030384642B9BDE8F087B8F1000F00D0D4
:105788004042002AF7D00EB10CF1FF311160F2E768
:105798003024002BB3D10823B1E7302CA4D00A233E
:1057A800ADE700BFBD5E000813460A460146024841
:1057B8000068FFF77FBF00BF5C000020704770479C
:1057C8000148FFF7FBBF00BF280500200148FFF78D
:1057D800F6BF00BF28050020F8B5074614460E4658
:1057E80021B9BDE8F8401146FFF7D2BE22B9FFF74C
:1057F8007FFE25462846F8BD00F014F8A0420FD2D7
:1058080021463846FFF7C4FE05460028F2D0314647
:105818002246FFF757FE31463846FFF769FEE9E7AB
:105828003546E7E751F8043C181F002BBCBF0B585E
:10583800C018704708B500F000F808B5062000F059
:105848002BF80120FEF7D0FC1F2938B504460D4679
:1058580004D9162303604FF0FF3038BD426C12B1F3
:1058680052F821304BB9204600F030F82A4601465C
:105878002046BDE8384000F017B8012B0AD0591C63
:1058880003D1162303600120E7E7002442F82540EE
:10589800284698470020E0E7024B01461868FFF7C2
:1058A800D3BF00BF5C00002038B5074D0023044675
:1058B800084611462B60FEF799FC431C02D12B6861
:1058C80003B1236038BD00BF20050020FEF796BC59
:1058D800F8B500BFF8BC08BC9E467047F8B500BFD5
:0858E800F8BC08BC9E467047A5
:1058F0004100420043004400450046004700480084
:1059000049004A004B004C004D004E004F00500033
:105910005100520053005400550A000203040506CA
:105920000708090A0B0C0D0E0F10100102030405E5
:10593000060708090A0B0C0D0E0F100408021012BE
:1059400011433A5C55736572735C4A75616E2063EE
:1059500061726C6F7320426172726572615C41703A
:1059600070446174615C4C6F63616C5C417264751E
:10597000696E6F31355C7061636B616765735C5331
:10598000544D33325C68617264776172655C737424
:105990006D33325C312E392E305C6C69627261720B
:1059A0006965735C537263577261707065725C7382
:1059B00072635C73746D33325C70696E6D61702EEE
:1059C000630000000100000002000000040000006D
:1059D000080000001000000020000000400000004F
:1059E0008000000000010000000200000004000030
:1059F000000800000010000000200000004000002F
:105A0000008000000000000000000000010203040C
:105A100006070809000000000102030454494D3A3A
:105A200020556E6B6E6F776E2074696D65722049BC
:105A300052516E0054494D3A20556E6B6E6F776E21
:105A40002074696D657220696E7374616E636500A0
:105A50000000000000000050038000000100000072
:105A60000000005003000100020000000000005090
:105A7000038001000300000000000050030002004A
:105A80000400000000010050038000000500000039
:105A9000000100500300010006000000000100505A
:105AA0000380010007000000000100500300020015
:105AB00010000000000000500380050011000000ED
:105AC0000000005003000600FFFF0000000000007F
