:100000000C945D000C9485000C9485000C94850084
:100010000C9485000C9485000C9485000C9485004C
:100020000C9485000C9485000C9485000C9485003C
:100030000C9485000C9485000C9485000C9485002C
:100040000C941D020C9485000C948D020C94670294
:100050000C9485000C9485000C9485000C9485000C
:100060000C9485000C94850000000008000201003B
:100070000003040700000000000000000000000072
:10008000250028002B0000000000240027002A0083
:10009000040404040404040402020202020203032E
:1000A0000303030301020408102040800102040836
:1000B0001020010204081020230511241FBECFEFD9
:1000C000D8E0DEBFCDBF11E0A0E0B1E0E4EFFAE0A0
:1000D00002C005900D92AA31B107D9F721E0AAE13B
:1000E000B1E001C01D92A03EB207E1F710E0CDE5FE
:1000F000D0E004C02197FE010E947205CC35D107E3
:10010000C9F70E94BF020C9478050C94000090E09F
:10011000FC01EC55FF4F249180579F4FFC018491C7
:10012000882399F090E0880F991FFC01EA57FF4F50
:10013000A591B491FC01E458FF4F859194918FB73C
:10014000F894EC91E22BEC938FBF089584E48093B4
:100150007C0080917A00806480937A0080917A009C
:1001600086FDFCCF80917800909179000895AF9240
:10017000BF92CF92DF92EF92FF920F931F93CF9394
:10018000DF936C017B018B01040F151FEB015E01F6
:10019000AE18BF08C017D10759F06991D601ED918B
:1001A000FC910190F081E02DC6010995892B79F72A
:1001B000C501DF91CF911F910F91FF90EF90DF90DC
:1001C000CF90BF90AF900895FC01538D448D252FA3
:1001D00030E0842F90E0821B930B541710F0CF96E1
:1001E000089501970895FC01918D828D981761F013
:1001F000A28DAE0FBF2FB11D5D968C91928D9F5F2A
:100200009F73928F90E008958FEF9FEF0895FC0108
:10021000918D828D981731F0828DE80FF11D858DBB
:1002200090E008958FEF9FEF0895FC01918D228D4E
:10023000892F90E0805C9F4F821B91098F739927D3
:10024000089583E491E00E94150121E0892B09F4CF
:1002500020E0822F089580E090E0892B29F00E9411
:10026000210181110C9400000895FC01A48DA80FB8
:10027000B92FB11DA35ABF4F2C91848D90E00196E8
:100280008F739927848FA689B7892C93A089B18908
:100290008C91837080648C93938D848D981306C0A9
:1002A0000288F389E02D80818F7D80830895EF920D
:1002B000FF920F931F93CF93DF93EC0181E0888F20
:1002C0009B8D8C8D98131AC0E889F989808185FFF0
:1002D00015C09FB7F894EE89FF896083E889F98992
:1002E00080818370806480839FBF81E090E0DF9194
:1002F000CF911F910F91FF90EF900895F62E0B8DE7
:1003000010E00F5F1F4F0F731127E02E8C8D8E11A1
:100310000CC00FB607FCFACFE889F989808185FF08
:10032000F5CFCE010E943501F1CFEB8DEC0FFD2F03
:10033000F11DE35AFF4FF0829FB7F8940B8FEA89C3
:10034000FB8980818062CFCFCF93DF93EC01888DD2
:100350008823B9F0AA89BB89E889F9898C9185FD40
:1003600003C0808186FD0DC00FB607FCF7CF8C91CE
:1003700085FFF2CF808185FFEDCFCE010E94350150
:10038000E9CFDF91CF91089590E0FC01E859FF4F4C
:100390002491FC01EC55FF4F3491FC01E057FF4FD5
:1003A000E491EE23C9F0222339F0233001F1A8F4BF
:1003B000213019F1223029F1F0E0EE0FFF1FE4584F
:1003C000FF4FA591B4918FB7F894EC91611126C0BD
:1003D00030953E233C938FBF08952730A9F02830F5
:1003E000C9F0243049F7809180008F7D03C080914F
:1003F00080008F7780938000DFCF84B58F7784BDB6
:10040000DBCF84B58F7DFBCF8091B0008F77809359
:10041000B000D2CF8091B0008F7DF9CF3E2BDACFE4
:10042000FC0101900020E9F73197AF01481B590BFF
:10043000BC0183E491E00C94B7001F920F920FB6B9
:100440000F9211242F933F938F939F93AF93BF935A
:1004500080913F0190914001A0914101B0914201F2
:1004600030913E0123E0230F2D3758F50196A11D51
:10047000B11D20933E0180933F0190934001A093D2
:100480004101B093420180913A0190913B01A091CA
:100490003C01B0913D010196A11DB11D80933A012F
:1004A00090933B01A0933C01B0933D01BF91AF916C
:1004B0009F918F913F912F910F900FBE0F901F90A2
:1004C000189526E8230F0296A11DB11DD2CF1F92C9
:1004D0000F920FB60F9211242F933F934F935F9378
:1004E0006F937F938F939F93AF93BF93EF93FF93FC
:1004F00083E491E00E943501FF91EF91BF91AF91AC
:100500009F918F917F916F915F914F913F912F912B
:100510000F900FBE0F901F9018951F920F920FB65D
:100520000F9211242F938F939F93EF93FF93E0915A
:100530005301F09154018081E0915901F0915A01E9
:1005400082FD1BC0908180915C018F5F8F73209131
:100550005D01821741F0E0915C01F0E0ED5BFE4F40
:10056000958F80935C01FF91EF919F918F912F91D7
:100570000F900FBE0F901F9018958081F4CFCF93EE
:10058000DF93CDB7DEB7A1970FB6F894DEBF0FBEED
:10059000CDBF789484B5826084BD84B5816084BD0C
:1005A00085B5826085BD85B5816085BD80916E0011
:1005B000816080936E001092810080918100826042
:1005C000809381008091810081608093810080917F
:1005D00080008160809380008091B100846080936E
:1005E000B1008091B00081608093B00080917A006A
:1005F000846080937A0080917A00826080937A0090
:1006000080917A00816080937A0080917A0080687E
:1006100080937A001092C100E0915301F09154014F
:1006200082E08083E0914F01F09150011082E091CF
:100630005101F091520180E1808310925B01E091C1
:100640005701F091580186E08083E0915501F091C7
:100650005601808180618083E0915501F0915601BF
:10066000808188608083E0915501F09156018081FE
:1006700080688083E0915501F091560180818F7DE3
:1006800080838EE00E9487008FE00E94870080E1D7
:100690000E94870081E10E9487009AE3C92E91E0C1
:1006A000D92E2AE0422E512C612C712C30E0232EC1
:1006B00030E0332E8AE1E82E81E0F82E60E08EE013
:1006C0000E94C40160E08FE00E94C40160E080E10C
:1006D0000E94C40160E081E10E94C4010E94A60062
:1006E00090931B0180931A0161E08EE00E94C40187
:1006F00060E08FE00E94C40160E080E10E94C401DC
:1007000060E081E10E94C4010E94A60090931D0157
:1007100080931C0160E08EE00E94C40161E08FE0E4
:100720000E94C40160E080E10E94C40160E081E1B8
:100730000E94C4010E94A60090931F0180931E0195
:1007400061E08EE00E94C40161E08FE00E94C4017C
:1007500060E080E10E94C40160E081E10E94C40188
:100760000E94A600909321018093200160E08EE01A
:100770000E94C40160E08FE00E94C40161E080E15A
:100780000E94C40160E081E10E94C4010E94A600B1
:10079000909323018093220161E08EE00E94C401C6
:1007A00060E08FE00E94C40161E080E10E94C4012A
:1007B00060E081E10E94C4010E94A600909325019F
:1007C0008093240160E08EE00E94C40161E08FE02C
:1007D0000E94C40161E080E10E94C40160E081E107
:1007E0000E94C4010E94A6009093270180932601D5
:1007F00061E08EE00E94C40161E08FE00E94C401CC
:1008000061E080E10E94C40160E081E10E94C401D6
:100810000E94A600909329018093280160E08EE059
:100820000E94C40160E08FE00E94C40160E080E1AA
:100830000E94C40161E081E10E94C4010E94A600FF
:1008400090932B0180932A0161E08EE00E94C40105
:1008500060E08FE00E94C40160E080E10E94C4017A
:1008600061E081E10E94C4010E94A60090932D01E5
:1008700080932C0160E08EE00E94C40161E08FE073
:100880000E94C40160E080E10E94C40161E081E156
:100890000E94C4010E94A60090932F0180932E0114
:1008A00061E08EE00E94C40161E08FE00E94C4011B
:1008B00060E080E10E94C40161E081E10E94C40126
:1008C0000E94A600909331018093300160E08EE099
:1008D0000E94C40160E08FE00E94C40161E080E1F9
:1008E0000E94C40161E081E10E94C4010E94A6004F
:1008F000909333018093320161E08EE00E94C40145
:1009000060E08FE00E94C40161E080E10E94C401C8
:1009100061E081E10E94C4010E94A600909335012C
:100920008093340160E08EE00E94C40161E08FE0BA
:100930000E94C40161E080E10E94C40161E081E1A4
:100940000E94C4010E94A600909337018093360153
:1009500061E08EE00E94C40161E08FE00E94C4016A
:1009600061E080E10E94C40161E081E10E94C40174
:100970000E94A6009093390180933801F70181907D
:1009800091907F01092C000CAA08BB08B7FE45C056
:100990006DE283E491E00E94570122273327A901E9
:1009A000281939094A095B0919A28E010F5D1F4FE9
:1009B000CA01B901A30192010E945005605DF801CE
:1009C00062938F01211531054105510589F7011504
:1009D000110519F0C8010E94100283E491E00E9401
:1009E000A40182E191E00E941002CE14DF0409F01C
:1009F00065CE84E191E00E94100286E191E00E94C0
:100A000010022114310409F455CE0E9421018823DB
:100A100009F450CE0E9400004DCEA501940119A208
:100A20008E010F5D1F4FCA01B901A30192010E94FF
:100A30005005605DF80162938F0121153105410574
:100A4000510589F7C4CFE3E4F1E01382128288EE06
:100A500093E0A0E0B0E084839583A683B78384E02D
:100A600091E09183808385EC90E09587848784EC86
:100A700090E09787868780EC90E0918B808B81EC6B
:100A800090E0938B828B82EC90E0958B848B86EC4C
:100A900090E0978B868B118E128E138E148E089594
:100AA000A1E21A2EAA1BBB1BFD010DC0AA1FBB1F72
:100AB000EE1FFF1FA217B307E407F50720F0A21BE4
:100AC000B30BE40BF50B661F771F881F991F1A9451
:100AD00069F760957095809590959B01AC01BD017B
:100AE000CF010895EE0FFF1F0590F491E02D0994BA
:040AF000F894FFCFA8
:100AF400000000005701B700E400A4011501F30051
:0A0B04000701090020000D0A00009F
:00000001FF
