:100000000C9458000C9480000C9480000C94800098
:100010000C9480000C9480000C9480000C94800060
:100020000C9480000C9480000C9480000C94800050
:100030000C9480000C9480000C9480000C94800040
:100040000C948A070C9480000C9458070C94320787
:100050000C9480000C9480000C9480000C94800020
:100060000C94D4070C9480000000000025002800A8
:100070002B00040404040404040402020202020229
:10008000030303030303010204081020408001025C
:1000900004081020010204081020000000080002DB
:1000A0000100000304070000000000000000F30846
:1000B00011241FBECFEFD8E0DEBFCDBF11E0A0E01E
:1000C000B1E0E0EBFBE102C005900D92AE39B10763
:1000D000D9F723E0AEE9B1E001C01D92A731B20724
:1000E000E1F710E0C8E5D0E004C02197FE010E94CE
:1000F000D00DC735D107C9F70E943E090C94D60D23
:100100000C94000008950895AF92BF92CF92DF92B1
:10011000EF92FF920F931F93CF93DF936C017B01BC
:100120008B01040F151FEB015E01AE18BF08C0174D
:10013000D10759F06991D601ED91FC910190F081C0
:10014000E02DC6010995892B79F7C501DF91CF9183
:100150001F910F91FF90EF90DF90CF90BF90AF90E5
:100160000895FC01538D448D252F30E0842F90E0BD
:10017000821B930B541710F0CF96089501970895A2
:10018000FC01918D828D981761F0A28DAE0FBF2F6B
:10019000B11D5D968C91928D9F5F9F73928F90E0C1
:1001A00008958FEF9FEF0895FC01918D828D981730
:1001B00031F0828DE80FF11D858D90E008958FEF6D
:1001C0009FEF0895FC01918D228D892F90E0805C36
:1001D0009F4F821B91098F739927089581E692E0C2
:1001E0000E94E20021E0892B09F420E0822F08958B
:1001F00080E090E0892B29F00E94EE0081110C94A0
:1002000000000895FC01A48DA80FB92FB11DA35AB9
:10021000BF4F2C91848D90E001968F739927848F26
:10022000A689B7892C93A089B1898C918370806449
:100230008C93938D848D981306C00288F389E02DEA
:1002400080818F7D80830895EF92FF920F931F939B
:10025000CF93DF93EC0181E0888F9B8D8C8D981379
:100260001AC0E889F989808185FF15C09FB7F89485
:10027000EE89FF896083E889F989808183708064D1
:1002800080839FBF81E090E0DF91CF911F910F911C
:10029000FF90EF900895F62E0B8D10E00F5F1F4F2B
:1002A0000F731127E02E8C8D8E110CC00FB607FC3A
:1002B000FACFE889F989808185FFF5CFCE010E94C8
:1002C0000201F1CFEB8DEC0FFD2FF11DE35AFF4F33
:1002D000F0829FB7F8940B8FEA89FB898081806256
:1002E000CFCFCF93DF93EC01888D8823B9F0AA8913
:1002F000BB89E889F9898C9185FD03C0808186FDE1
:100300000DC00FB607FCF7CF8C9185FFF2CF80812F
:1003100085FFEDCFCE010E940201E9CFDF91CF91A1
:10032000089590E0FC01E656FF4F2491FC01EA5746
:10033000FF4F3491FC01EE58FF4FE491EE23C9F0DA
:10034000222339F0233001F1A8F4213019F12230B1
:1003500029F1F0E0EE0FFF1FE859FF4FA591B4918E
:100360008FB7F894EC91611126C030953E233C93F1
:100370008FBF08952730A9F02830C9F0243049F7FD
:10038000809180008F7D03C0809180008F77809363
:100390008000DFCF84B58F7784BDDBCF84B58F7DC0
:1003A000FBCF8091B0008F778093B000D2CF809147
:1003B000B0008F7DF9CF3E2BDACF3FB7F894809114
:1003C000E7019091E801A091E901B091EA0126B519
:1003D000A89B05C02F3F19F00196A11DB11D3FBF7D
:1003E000BA2FA92F982F8827BC01CD01620F711D4C
:1003F000811D911D42E0660F771F881F991F4A9546
:10040000D1F708958F929F92AF92BF92CF92DF92D1
:10041000EF92FF924B015C010E94DD016B017C01B8
:100420000E94DD016C197D098E099F09683E7340A9
:1004300081059105A8F321E0821A9108A108B1086D
:1004400088EEC80E83E0D81EE11CF11C81149104D3
:10045000A104B10429F7FF90EF90DF90CF90BF90F7
:10046000AF909F908F90089508952091BF01260F1F
:100470003327331F21323105ECF420913702FC0180
:1004800090E080E0243069F082E00895A091BF01FF
:100490002191AC0141565E4FA40FB52FB11D2C9395
:1004A0000196861798F38091BF01680F6093BF0192
:1004B00080E0089581E008951092370281E08093F2
:1004C00036021092110261E082E10E94910161E026
:1004D00083E10E949101E9EBF0E080818E7F8083CF
:1004E00080818D7F808388E48093B80085E4809349
:1004F000BC0008951092100210920F0210923E025A
:10050000109260020E945C0282E890E090930E02DA
:1005100080930D0283E890E090930C0280930B028D
:100520000895CF93DF9391E090939E018823B9F0D3
:10053000C091B800D091BA008091BC008A7B8093B2
:10054000BC0060E082E10E94910160E083E10E94D2
:1005500091010E945C02D093BA00C093B800DF9171
:10056000CF9108958F929F92AF92BF92CF92DF92D8
:10057000EF92FF920F931F93CF93DF93D09160027E
:10058000D13208F0D7C0182FC0915F020E94DD0160
:100590006B017C018091370281116BC082E08093F6
:1005A0003702109336028FEF809335021092340297
:1005B000D0933302AFE3B2E0E3E1F2E080E0D8139E
:1005C00091C01092120280911202CC0FC82BC093DE
:1005D000120280911102813009F088C0109211023C
:1005E0000E94DD016B017C01809112028093BB00AF
:1005F0008091390290913A02A0913B02B0913C0265
:10060000892B8A2B8B2BA1F00E94DD0100913902EE
:1006100010913A0220913B0230913C026C197D0905
:100620008E099F09061717072807390708F442C0E3
:100630008091BC0083FDD8CF85EC8093BC000E94E4
:10064000DD016B017C0180913702823009F450C0DA
:10065000809135028F3F09F46FC08091350280325E
:1006600009F46CC080913502803309F469C084E0DC
:1006700026C08091390290913A02A0913B02B0913C
:100680003C02892B8A2B8B2B09F484CF0E94DD013D
:100690008090390290903A02A0903B02B0903C02C8
:1006A0006C197D098E099F0986169706A806B9065A
:1006B00008F070CF809138020E94910285E010927C
:1006C0003E021092600210923D02DF91CF911F9185
:1006D0000F91FF90EF90DF90CF90BF90AF909F90E1
:1006E0008F9008959D9191938F5F69CF85EEA5CFEF
:1006F0008091390290913A02A0913B02B0913C0264
:10070000892B8A2B8B2B09F49ECF0E94DD0100914F
:10071000390210913A0220913B0230913C026C194F
:100720007D098E099F09061717072807390708F062
:100730008ACFC0CF81E0C3CF80E0C1CF82E0BFCFFE
:1007400083E0BDCF0895E091100280910F02E81779
:1007500030F4F0E0E551FE4F808190E008958FEF96
:100760009FEF08959091100280910F022FEF3FEFBD
:10077000981748F4E92FF0E0E551FE4F208130E072
:100780009F5F90931002C901089580910F0290918C
:100790001002891B990B0895CF92DF92EF92FF927E
:1007A0000F931F93CF93DF937C01CB018A0120919C
:1007B0003D02222389F0EB016B01C40ED51ECC153E
:1007C000DD0569F06991D701ED91FC910190F0810F
:1007D000E02DC7010995F3CF642F0E943502C801AF
:1007E000DF91CF911F910F91FF90EF90DF90CF900D
:1007F0000895CF93DF931F92CDB7DEB76983209121
:100800003D022223F9F020916002203258F021E0CD
:1008100030E0FC013383228390E080E00F90DF9191
:10082000CF91089580913E02E82FF0E0E15CFD4F0A
:10083000998190838F5F80933E028093600281E074
:1008400090E0ECCF61E0CE0101960E943502F7CF37
:10085000FC01248131E030933D0220935F0210922D
:100860003E02109260028385682B8EEF92E00E9418
:10087000F90381E00C94B20290E080E00895CF92F9
:10088000DF92EF92FF920F931F93CF93DF9390919C
:10089000160321E020933D0290935F0210923E02E6
:1008A00010926002682F8EEF92E00E94F90380E0C0
:1008B0000E94B202C09116030E94DD016B017C010F
:1008C00080913702811166C081E080933702809366
:1008D00036029FEF909335021092340292E090938B
:1008E00033028093120280911202CC0FC82BC09366
:1008F000120280911102813009F090C01092110211
:100900000E94DD016B017C01809112028093BB008B
:100910008091390290913A02A0913B02B0913C0241
:10092000892B8A2B8B2BA1F00E94DD0100913902CB
:1009300010913A0220913B0230913C026C197D09E2
:100940008E099F09061717072807390708F443C0BF
:100950008091BC0083FDD8CF85EC8093BC000E94C1
:10096000DD016B017C0180913702813009F458C0B0
:1009700080913402833008F075C080913402E3E145
:10098000F2E0ABEEB1E090E0981751F121912D9398
:100990009F5FFACF8091390290913A02A0913B0279
:1009A000B0913C02892B8A2B8B2B09F489CF0E94B2
:1009B000DD010091390210913A0220913B02309101
:1009C0003C026C197D098E099F0906171707280735
:1009D000390708F075CF809138020E94910280E0BB
:1009E0001092100280930F028EEF92E00E94B203E9
:1009F000EC018EEF92E00E94B20320E0C22BD82BD4
:100A00008EEF92E00E94B203CE01DF91CF911F9151
:100A10000F91FF90EF90DF90CF90089585EE9DCFDE
:100A20008091390290913A02A0913B02B0913C0230
:100A3000892B8A2B8B2B09F496CF0E94DD01009124
:100A4000390210913A0220913B0230913C026C191C
:100A50007D098E099F09061717072807390708F02F
:100A600082CFB9CF83E08BCF0F931F93CF938C01AD
:100A7000C62F0E9428046C2F6460C8010E942804BD
:100A80006C2F6B7FC8010E94280483EC90E00197D3
:100A9000F1F7CF911F910F9108950F931F93CF936B
:100AA000DF938C01D62FC42F607F642B0E94340506
:100AB00080E1D89FB00111246C2BC801DF91CF9148
:100AC0001F910F910C943405CF93DF93CDB7DEB710
:100AD00028970FB6F894DEBF0FBECDBF98E0E0E0D8
:100AE000F1E0DE01119601900D929A95E1F7909157
:100AF0001203961710F46FEF690F262F30E0220FC4
:100B0000331F41E050E04C0F5D1F240F351FF901EA
:100B10006081680F606840E08AE093E028960FB635
:100B2000F894DEBF0FBECDBFDF91CF910C944D0581
:100B300041E00E944D0581E090E00895FB010190A5
:100B40000020E9F73197AF01461B570BDC01ED910F
:100B5000FC910280F381E02D09948F929F92AF92D5
:100B6000BF92EF92FF920F931F93CF93DF93CDB776
:100B7000DEB7A1970FB6F894DEBF0FBECDBF7C01E4
:100B8000FA01CB0119A2223008F42AE08E010F5D90
:100B90001F4F822E912CB12CA12CBF01A5019401D5
:100BA0000E94AE0DF901CA016A300CF5605DD801F2
:100BB0006E938D01232B242B252B79F790E080E079
:100BC000109721F0BD01C7010E949E05A1960FB6A6
:100BD000F894DEBF0FBECDBFDF91CF911F910F9173
:100BE000FF90EF90BF90AF909F908F900895695CB9
:100BF000DECFCF93DF93BC0181E692E00E949E0599
:100C0000EC0168E371E081E692E00E949E058C0FA2
:100C10009D1FDF91CF9108952F923F924F925F9247
:100C20006F927F928F929F92AF92BF92CF92DF92FC
:100C3000EF92FF921F93CF93DF93EC016A017B0148
:100C4000722EAB019601CB01B6010E94A90D6BE398
:100C500071E0811126C046015701E894B7F82FEFE3
:100C60003FEF4FE75FE7C501B4010E94A90D811175
:100C70000CC02FEF3FEF4FE75FE7C501B4010E94C3
:100C8000DF0B6FE371E0181664F02FEF3FEF4FE7D3
:100C90005FE4C701B6010E94370D1816B4F463E48F
:100CA00071E0CE01DF91CF911F91FF90EF90DF9027
:100CB000CF90BF90AF909F908F907F906F905F90FC
:100CC0004F903F902F900C949E052FEF3FEF4FE7F2
:100CD0005FECC701B6010E94DF0B87FDE0CF20E08B
:100CE00030E0A901C701B6010E94DF0B312C212C95
:100CF00087FF0DC0E881F9810190F081E02D6DE260
:100D0000CE0109951C01F7FAF094F7F8F09410E081
:100D100060E070E080E09FE3711641F020E030E099
:100D200040E251E40E94E40B1F5FF6CFA701960159
:100D30000E94730B2B013C010E94560C4B015C017D
:100D40002AE0BC01A401CE010E94AD057C01E20CA9
:100D5000F31C1123E1F1C501B4010E94850C9B0134
:100D6000AC01C301B2010E94720B4B015C01E8812E
:100D7000F9810190F081E02D6EE2CE010995E80E37
:100D8000F91E115020F120E030E040E251E4C501AD
:100D9000B4010E943C0D2B013C010E94560C4B01FA
:100DA000B12CA12C2AE0B501A401CE010E94AD0511
:100DB000E80EF91EC501B4010E94850C9B01AC012F
:100DC000C301B2010E94720B4B015C01DACFC70173
:100DD000DF91CF911F91FF90EF90DF90CF90BF9068
:100DE000AF909F908F907F906F905F904F903F90CB
:100DF0002F90089585ED8093BC00809139029091E9
:100E00003A02A0913B02B0913C020796A11DB11D90
:100E100023E0B695A795979587952A95D1F72091C8
:100E2000BC0024FD03C0109237020895409139029E
:100E300050913A0260913B0270913C02452B462B47
:100E4000472B69F30097A105B10541F02AE22A95E5
:100E5000F1F700C00197A109B109E1CF80913802F3
:100E60000C9491021F920F920FB60F9211242F93A0
:100E70003F934F935F936F937F938F939F93AF9322
:100E8000BF93EF93FF9381E692E00E940201FF91EE
:100E9000EF91BF91AF919F918F917F916F915F91F2
:100EA0004F913F912F910F900FBE0F901F9018956B
:100EB0001F920F920FB60F9211242F938F939F932F
:100EC000EF93FF93E0917102F09172028081E091C3
:100ED0007702F091780282FD1BC0908180917A02A6
:100EE0008F5F8F7320917B02821741F0E0917A022D
:100EF000F0E0EF59FD4F958F80937A02FF91EF91CB
:100F00009F918F912F910F900FBE0F901F9018956A
:100F10008081F4CF1F920F920FB60F9211242F935E
:100F20003F938F939F93AF93BF938091E3019091F1
:100F3000E401A091E501B091E6013091E20123E0E6
:100F4000230F2D3758F50196A11DB11D2093E20105
:100F50008093E3019093E401A093E501B093E6014F
:100F60008091E7019091E801A091E901B091EA0137
:100F70000196A11DB11D8093E7019093E801A09314
:100F8000E901B093EA01BF91AF919F918F913F9199
:100F90002F910F900FBE0F901F90189526E8230FEA
:100FA0000296A11DB11DD2CF1F920F920FB60F92C4
:100FB00011242F933F934F935F936F937F938F935E
:100FC0009F93AF93BF93EF93FF938091B900887F76
:100FD000803609F44AC0F0F5883209F4A7C018F544
:100FE000803109F49BC0B8F4882309F4F9C0883033
:100FF00009F494C0FF91EF91BF91AF919F918F91B0
:101000007F916F915F914F913F912F910F900FBE04
:101010000F901F901895883109F488C0803251F7DD
:101020008093350214C0803409F49DC040F48033AD
:10103000B9F38833F9F68093350285ECB0C080357A
:1010400009F485C0883509F496C0883499F60E9461
:10105000FA06D0CF883909F48CC038F5883729F0E2
:1010600050F4883611F0803729F683E080933702F8
:101070001092E10157C0883809F47BC0803919F01B
:10108000803809F0B7CF8091E101803208F071C05B
:10109000E091E10181E08E0F8093E1018091BB003E
:1010A000F0E0EF53FE4F80833DC0803B39F0E0F429
:1010B000803A09F479C0883A09F09CCF84E08093A3
:1010C00037021092C0011092BF01E0910D02F09121
:1010D0000E0209958091BF0181110FC081E08093BC
:1010E000BF0110929F0109C0803C09F4A6CF883C43
:1010F00009F4A3CF883B09F07DCFE091C00181E0E6
:101100008E0F8093C001F0E0E156FE4F8081809306
:10111000BB009091C0018091BF0129C08091120253
:101120008093BB0085EC8093BC0064CF9091340227
:1011300080913302981758F5E091340281E08E0FC8
:1011400080933402F0E0ED5EFD4F8081E9CFE091C5
:10115000340281E08E0F809334028091BB00F0E076
:10116000ED5EFD4F80839091340280913302981799
:10117000C8F285E8D8CFE091340281E08E0F8093E9
:1011800034028091BB00F0E0ED5EFD4F80838091E2
:10119000360281115CCF81E08093110284EA809352
:1011A000BC001092370226CF85EC8093BC001092D1
:1011B00037028091E101803230F4E091E101F0E00A
:1011C000EF53FE4F10826091E10170E0E0910B025D
:1011D000F0910C0281EC91E009951092E1010ACFA7
:1011E0001092350234CFE1E6F2E01382128288EEEB
:1011F00093E0A0E0B0E084839583A683B7832CE0DE
:1012000031E03183208325EC30E03587248724ECDE
:1012100030E03787268720EC30E0318B208B21ECC3
:1012200030E0338B228B22EC30E0358B248B26ECA4
:1012300030E0378B268B118E128E138E148EEEEFCC
:10124000F2E01382128284839583A683B7838EE1B2
:1012500091E0918380838AE580931603EAE0F3E0CE
:101260001382128280E391E09183808387E28483FA
:1012700080E1818782E0828713860895789484B51F
:10128000826084BD84B5816084BD85B5826085BD82
:1012900085B5816085BD80916E00816080936E0010
:1012A0001092810080918100826080938100809102
:1012B00081008160809381008091800081608093B3
:1012C00080008091B10084608093B1008091B00073
:1012D00081608093B00080917A00846080937A006E
:1012E00080917A00826080937A0080917A00816098
:1012F00080937A0080917A00806880937A001092BF
:10130000C100E0917102F091720282E08083E0916D
:101310006D02F0916E021082E0916F02F091700206
:101320008FEC808310927902E0917502F091760241
:1013300086E08083E0917302F09174028081806185
:101340008083E0917302F0917402808188608083D1
:10135000E0917302F0917402808180688083E09153
:101360007302F091740280818F7D808387E491E025
:101370000E94F9050E947A020E947A020E947A0273
:1013800010920F0380911403823018F098E090932C
:101390000F038093120362E370E080E090E00E940C
:1013A0000202609115038AE093E00E94280468EE2F
:1013B00073E080E090E00E94020260E38AE093E044
:1013C0000E943405CBE4D6E4CE010197F1F760E347
:1013D0008AE093E00E9434052197F1F760E38AE008
:1013E00093E00E94340583E592E00197F1F760E213
:1013F0008AE093E00E94340560910F03606240E050
:101400008AE093E00E944D0584E08093100340E061
:101410006CE08AE093E00E944D0540E061E08AE0E4
:1014200093E00E944D05CBE3DFE1CE010197F1F798
:1014300082E08093110340E066E08AE093E00E943E
:101440004D0540E062E08AE093E00E944D0521975F
:10145000F1F788E08093150360E08AE093E00E9452
:101460002804C0E0D0E060E080E00E9464056EE502
:1014700071E081E692E00E949E0586E00E943F04B2
:10148000BC0190E080E00E94850C2AE037ED43EA41
:101490005CE30E943C0D23E333E948E853E40E94F7
:1014A000720BAB01BC0122E081E692E00E940C06C7
:1014B00069E671E08AE093E00E949E0560E08AE0C0
:1014C0000E94640587E00E943F04BC0190E080E038
:1014D0000E94850C2AE037ED43EA5CE30E943C0D54
:1014E00023E333E948E853E40E94720BAB01BC01EB
:1014F00022E08AE093E00E940C0660E08FE00E9408
:1015000064056BE871E08AE093E00E949E056AE062
:1015100080E00E94640563E771E08AE093E00E9446
:101520009E056AE08AE00E94640586E00E943F040E
:10153000BC0190E080E00E94850C2AE037ED43EA90
:101540005CE30E943C0D23E333E948E853E40E9446
:10155000720B20E030E040E151E40E943C0D20E0BD
:1015600030E040EA50E40E94E40B20E030E040E04C
:1015700052E40E94730BAB01BC0122E08AE093E0CD
:101580000E940C066AE08FE00E9464056BE971E03E
:101590008AE093E00E949E056DE771E081E692E0AB
:1015A0000E949E0587E00E943F04BC0190E080E01D
:1015B0000E94850C2AE037ED43EA5CE30E943C0D73
:1015C00023E333E948E853E40E94720BAB01BC010A
:1015D00022E081E692E00E940C068AE891E00E94F7
:1015E000F9056EE571E081E692E00E949E0586E0D5
:1015F0000E943F04BC0190E080E00E94850C2AE03C
:1016000037ED43EA5CE30E943C0D23E333E948E80D
:1016100053E40E94720B20E030E040E151E40E946C
:101620003C0D20E030E040EA50E40E94E40B20E072
:1016300030E040E052E40E94730BAB01BC0122E0B9
:1016400081E692E00E940C066DE871E081E692E08E
:101650000E949E0587E00E943F04BC0190E080E06C
:101660000E94850C2AE037ED43EA5CE30E943C0DC2
:1016700023E333E948E853E40E94720B20E030E0B2
:1016800040E151E40E943C0D20E030E040EA50E4AB
:101690000E94E40B20E030E040E052E40E94730B33
:1016A000AB01BC0122E081E692E00E940C068AE9CF
:1016B00091E00E94F90568E371E081E692E00E9402
:1016C0009E0564EF71E080E090E00E9402022097A6
:1016D00009F4C9CE0E94EE00882309F4C4CE0E940A
:1016E0000000C1CE5058BB27AA270E948A0B0C9439
:1016F000FD0C0E94EF0C38F00E94F60C20F039F43B
:101700009F3F19F426F40C94EC0C0EF4E095E7FBE3
:101710000C94E60CE92F0E940E0D58F3BA176207DD
:1017200073078407950720F079F4A6F50C94300D23
:101730000EF4E0950B2EBA2FA02D0B01B9019001EC
:101740000C01CA01A0011124FF27591B99F0593F30
:1017500050F4503E68F11A16F040A22F232F342F78
:101760004427585FF3CF469537952795A795F040C6
:101770005395C9F77EF41F16BA0B620B730B840BDB
:10178000BAF09150A1F0FF0FBB1F661F771F881F93
:10179000C2F70EC0BA0F621F731F841F48F48795EB
:1017A00077956795B795F7959E3F08F0B0CF9395DD
:1017B000880F08F09927EE0F9795879508950E9456
:1017C000C20C08F481E008950E94F80B0C94FD0C03
:1017D0000E94F60C58F00E94EF0C40F029F45F3F95
:1017E00029F00C94E60C51110C94310D0C94EC0C76
:1017F0000E940E0D68F39923B1F3552391F3951BC5
:10180000550BBB27AA2762177307840738F09F5F21
:101810005F4F220F331F441FAA1FA9F335D00E2E8E
:101820003AF0E0E832D091505040E695001CCAF7FB
:101830002BD0FE2F29D0660F771F881FBB1F2617BE
:1018400037074807AB07B0E809F0BB0B802DBF0195
:10185000FF2793585F4F3AF09E3F510578F00C9464
:10186000E60C0C94310D5F3FE4F3983ED4F386957B
:1018700077956795B795F7959F5FC9F7880F911D85
:101880009695879597F90895E1E0660F771F881F71
:10189000BB1F621773078407BA0720F0621B730B24
:1018A000840BBA0BEE1F88F7E09508950E94160D81
:1018B00088F09F5798F0B92F9927B751B0F0E1F011
:1018C000660F771F881F991F1AF0BA95C9F714C0C1
:1018D000B13091F00E94300DB1E008950C94300DBC
:1018E000672F782F8827B85F39F0B93FCCF38695FA
:1018F00077956795B395D9F73EF490958095709557
:1019000061957F4F8F4F9F4F0895E89409C097FBD3
:101910003EF490958095709561957F4F8F4F9F4FC6
:101920009923A9F0F92F96E9BB279395F69587950A
:1019300077956795B795F111F8CFFAF4BB0F11F4CD
:1019400060FF1BC06F5F7F4F8F4F9F4F16C0882374
:1019500011F096E911C0772321F09EE8872F762FAA
:1019600005C0662371F096E8862F70E060E02AF0EB
:101970009A95660F771F881FDAF7880F96958795D7
:1019800097F90895990F0008550FAA0BE0E8FEEFAC
:1019900016161706E807F907C0F012161306E40733
:1019A000F50798F0621B730B840B950B39F40A262C
:1019B00061F0232B242B252B21F408950A2609F40A
:1019C000A140A6958FEF811D811D089597F99F670E
:1019D00080E870E060E008959FEF80EC08950024B7
:1019E0000A941616170618060906089500240A9484
:1019F00012161306140605060895092E0394000C0A
:101A000011F4882352F0BB0F40F4BF2B11F460FF98
:101A100004C06F5F7F4F8F4F9F4F089557FD9058C1
:101A2000440F551F59F05F3F71F04795880F97FBA2
:101A3000991F61F09F3F79F087950895121613065C
:101A40001406551FF2CF4695F1DF08C0161617068B
:101A50001806991FF1CF86957105610508940895C0
:101A6000E894BB2766277727CB0197F908950E9452
:101A7000C20C08F48FEF08950E944F0D0C94FD0CDA
:101A80000E94EF0C38F00E94F60C20F0952311F024
:101A90000C94E60C0C94EC0C11240C94310D0E9467
:101AA0000E0D70F3959FC1F3950F50E0551F629F87
:101AB000F001729FBB27F00DB11D639FAA27F00DA7
:101AC000B11DAA1F649F6627B00DA11D661F829FCE
:101AD0002227B00DA11D621F739FB00DA11D621FB3
:101AE000839FA00D611D221F749F3327A00D611DD0
:101AF000231F849F600D211D822F762F6A2F1124B2
:101B00009F5750409AF0F1F088234AF0EE0FFF1FE4
:101B1000BB1F661F771F881F91505040A9F79E3F3B
:101B2000510580F00C94E60C0C94310D5F3FE4F30A
:101B3000983ED4F3869577956795B795F795E79591
:101B40009F5FC1F7FE2B880F911D9695879597F99A
:101B500008950E94C20C880B990B0895A1E21A2ED9
:101B6000AA1BBB1BFD010DC0AA1FBB1FEE1FFF1F41
:101B7000A217B307E407F50720F0A21BB30BE40B91
:101B8000F50B661F771F881F991F1A9469F76095D8
:101B90007095809590959B01AC01BD01CF01089592
:101BA000EE0FFF1F0590F491E02D0994F894FFCFFC
:101BB00000004000140054000000000024018400D4
:101BC000B1007101E200C000D40000000000F90380
:101BD000CC033C04A203C503B203A303000000002E
:101BE000980584003C0434020D0A006E616E0069A1
:101BF0006E66006F76660041646166727569742076
:101C00004D4C583930363134207465737400416D51
:101C10006269656E74203D2000745F6F626A65744E
:101C20006F3D00616D6269656E74653D002A430910
:101C30004F626A656374203D20002A43002A4609EA
:0E1C40004F626A656374203D20002A46000052
:00000001FF
