:100000000C945E000C9486000C9486000C94860080
:100010000C9486000C9486000C9486000C94A80422
:100020000C9486000C9486000C9486000C94860038
:100030000C9486000C9486000C9486000C94860028
:100040000C945C050C9486000C942A050C94040511
:100050000C9486000C9486000C9486000C94860008
:100060000C9486000C948600000000080002010039
:100070000003040700000000000000000000000072
:10008000240027002A0001020408102040800102F9
:1000900004081020010204081020000000002500C0
:1000A00028002B00040404040404040402020202D5
:1000B00002020303030303030200150811241FBEF9
:1000C000CFEFD8E0DEBFCDBF17E0A0E0B1E0ECEFAE
:1000D000F3E102C005900D92A23DB107D9F728E0E7
:1000E000A2EDB7E001C01D92A938B207E1F710E018
:1000F000CEE5D0E004C02197FE010E94E709CD358E
:10010000D107C9F70E94A6050C94FC090C940000C5
:100110004F925F926F927F928F929F92AF92BF9217
:10012000CF92DF92EF92FF920F931F93CF93DF93C3
:1001300000D000D01F92CDB7DEB78C012A013B0161
:10014000809100018930C1F08F3FF1F00F900F9046
:100150000F900F900F90DF91CF911F910F91FF9013
:10016000EF90DF90CF90BF90AF909F908F907F9057
:100170006F905F904F900895E8EBF0E084918D834D
:100180008D8187FDE3CF49C089E080930001E8EBD2
:10019000F0E094919D839F3FC9F2913009F4D7C05C
:1001A00020F1923069F71092B0001092B100809166
:1001B000B00082608093B0008091B1008160809334
:1001C000B100EDEAF0E0E491F0E0EE0FFF1FE6563B
:1001D000FF4F8591949190937A0880937908EFE886
:1001E000F0E0E491E093780818C014BC15BC84B525
:1001F000826084BD85B5816085BDEDEAF0E0E49163
:10020000F0E0EE0FFF1FE656FF4F85919491EFE867
:10021000F0E0E491E0937C081D82EFE8F0E02491A7
:10022000EDEAF0E08491882399F090E0880F991F1F
:10023000FC01E458FF4FA591B491FC01E656FF4F35
:10024000859194918FB7F894EC91E22BEC938FBF4A
:100250004801B12CA12C60E072E18AE790E0A50191
:1002600098010E94A90929833A834B835C83690121
:100270007A0191E0C91AD108E108F1088D818D7FDA
:1002800009F029C18FEFC816D104E104F10409F087
:100290000CF4F6C060E472E48FE090E0A5019801F0
:1002A0000E94A90969017A0191E0C91AD108E108FF
:1002B000F1088D81823009F068C082E09FEFC91695
:1002C000D104E104F10409F00CF4AAC060E970ED76
:1002D00083E090E0A50198010E94A90969017A01D3
:1002E00081E0C81AD108E108F10883E09FEFC91640
:1002F000D104E104F10409F00CF492C068E478EE52
:1003000081E090E0A50198010E94A90969017A01A4
:1003100081E0C81AD108E108F10884E09FEFC9160E
:10032000D104E104F10409F00CF47AC064E274EF42
:1003300080E090E0A50194010E94A90969017A0179
:1003400091E0C91AD108E108F10885E03AC010929D
:1003500080001092810080918100886080938100EC
:1003600080918100816080938100EDEAF0E0E4916A
:10037000F0E0EE0FFF1FE656FF4F85919491EFE8F6
:10038000F0E0E491E0937B0848CF8FEFC816D104EA
:10039000E104F10409F00CF49CC068E478EE81E01B
:1003A00090E0A50198010E94A90969017A0191E0F4
:1003B000C91AD108E108F1088D81882309F4E3C046
:1003C00084E09FEFC916D104E104F10449F140F142
:1003D00062E17AE780E090E0A50194010E94A9091A
:1003E00069017A0181E0C81AD108E108F10886E0C4
:1003F0009FEFC916D104E104F10491F088F0C9809F
:10040000DA80EB80FC809AE0F594E794D794C79467
:100410009A95D1F781E0C81AD108E108F10887E080
:100420009091B100987F892B8093B10031C062E137
:100430007AE780E090E0A50194010E94A909690192
:100440007A0181E0C81AD108E108F10884E09FEF41
:10045000C916D104E104F104B9F0B0F0C980DA8022
:10046000EB80FC808AE0F594E794D794C7948A9552
:10047000D1F791E0C91AD108E108F10885E004C07C
:1004800081E09D819111CCCF95B5987F892B85BD59
:100490002FEF3FEFA901411451046104710409F0E9
:1004A00042C09D81913009F44CC0923009F45BC088
:1004B00091114CCEC7BC2093850830938608409399
:1004C00087085093880880916E00826080936E0048
:1004D0003DCE82E0D6CF91E0C114D10481E0E806A0
:1004E000F10484F068E478EE81E090E0A5019801E1
:1004F0000E94A90969017A0191E0C91AD108E108AD
:10050000F10893E08D81813019F680918100887F18
:10051000892B809381002FEF3FEFA90141145104F3
:100520006104710471F0D801AA0FBB1FA3019201ED
:100530000E94C80928EE33E040E050E00E9487099D
:10054000B0CFD0928900C092880020938108309368
:100550008208409383085093840880916F008260E2
:1005600080936F00F3CDC092B30020937D08309349
:100570007E0840937F0850938008809170008260CD
:1005800080937000E3CD8FEFC816D104E104F1042D
:1005900011F00CF04CCF83E077CF909100018913DC
:1005A0000DC0E8EBF0E0E4919FEF90930001E130A3
:1005B00009F431C068F1E23009F433C090E0FC0185
:1005C000E859FF4F2491FC01EA57FF4F3491FC0199
:1005D000EC55FF4FE491EE23D1F0222351F023306C
:1005E00009F43AC078F5213009F43CC0223009F40E
:1005F0003DC0F0E0EE0FFF1FE656FF4FA591B4910E
:100600008FB7F894EC9130953E233C938FBF0895BB
:1006100010926E00D3CF90916F009D7F90936F00EA
:10062000CDCF909170009D7F9093700091E090935A
:10063000B0009091B100987F94609093B1001092B7
:10064000B300BCCF2730A9F02830C9F0243089F698
:10065000809180008F7D03C0809180008F77809390
:100660008000C7CF84B58F7784BDC3CF84B58F7D1D
:10067000FBCF8091B0008F778093B000BACF80918C
:10068000B0008F7DF9CFAF92BF92CF92DF92EF9201
:10069000FF920F931F93CF93DF936C017B018B012C
:1006A000040F151FEB015E01AE18BF08C017D1077C
:1006B00059F06991D601ED91FC910190F081E02D06
:1006C000C6010995892B79F7C501DF91CF911F915B
:1006D0000F91FF90EF90DF90CF90BF90AF90089573
:1006E000FC01538D448D252F30E0842F90E0821B38
:1006F000930B541710F0CF96089501970895FC01BD
:10070000918D828D981761F0A28DAE0FBF2FB11D14
:100710005D968C91928D9F5F9F73928F90E008956C
:100720008FEF9FEF0895FC01918D828D981731F026
:10073000828DE80FF11D858D90E008958FEF9FEF7A
:100740000895FC01918D228D892F90E0805C9F4F50
:10075000821B91098F73992708958BED97E00E9472
:10076000A10321E0892B09F420E0822F089580E085
:1007700090E0892B29F00E94AD0381110C940000B8
:100780000895FC01A48DA80FB92FB11DA35ABF4F26
:100790002C91848D90E001968F739927848FA68980
:1007A000B7892C93A089B1898C91837080648C93D4
:1007B000938D848D981306C00288F389E02D808183
:1007C0008F7D80830895EF92FF920F931F93CF93B5
:1007D000DF93EC0181E0888F9B8D8C8D98131AC07C
:1007E000E889F989808185FF15C09FB7F894EE8963
:1007F000FF896083E889F9898081837080648083C0
:100800009FBF81E090E0DF91CF911F910F91FF900A
:10081000EF900895F62E0B8D10E00F5F1F4F0F73B2
:100820001127E02E8C8D8E110CC00FB607FCFACF6D
:10083000E889F989808185FFF5CFCE010E94C10347
:10084000F1CFEB8DEC0FFD2FF11DE35AFF4FF0823E
:100850009FB7F8940B8FEA89FB8980818062CFCFA4
:10086000CF93DF93EC01888D8823B9F0AA89BB89E7
:10087000E889F9898C9185FD03C0808186FD0DC0D2
:100880000FB607FCF7CF8C9185FFF2CF808185FFF3
:10089000EDCFCE010E94C103E9CFDF91CF91089542
:1008A0003FB7F8948091D7079091D807A091D907C6
:1008B000B091DA0726B5A89B05C02F3F19F0019625
:1008C000A11DB11D3FBFBA2FA92F982F8827BC01AA
:1008D000CD01620F711D811D911D42E0660F771FD2
:1008E000881F991F4A95D1F708958F929F92AF92D2
:1008F000BF92CF92DF92EF92FF926B017C010E9438
:1009000050044B015C01C114D104E104F104B9F0BD
:100910000E945004681979098A099B09683E73404E
:100920008105910580F321E0C21AD108E108F108A0
:1009300088EE880E83E0981EA11CB11CE4CFFF90C6
:10094000EF90DF90CF90BF90AF909F908F900895E1
:100950001F920F920FB60F9211242F933F934F9334
:100960005F936F937F938F939F93AF93BF93EF9317
:10097000FF9380917D0890917E08A0917F08B091AF
:100980008008892B8A2B8B2BD1F190917808E091EC
:100990007908F0917A0880818927808380917D0889
:1009A00090917E08A0917F08B091800818161906D2
:1009B0001A061B069CF480917D0890917E08A091F8
:1009C0007F08B09180080197A109B10980937D0843
:1009D00090937E08A0937F08B0938008FF91EF91D9
:1009E000BF91AF919F918F917F916F915F914F9147
:1009F0003F912F910F900FBE0F901F9018958091EF
:100A000000010E94CD02EACF1F920F920FB60F9203
:100A100011242F933F934F935F936F937F938F9303
:100A20009F93AF93BF93EF93FF938BED97E00E945B
:100A3000C103FF91EF91BF91AF919F918F917F91F2
:100A40006F915F914F913F912F910F900FBE0F903B
:100A50001F9018951F920F920FB60F9211242F938B
:100A60008F939F93EF93FF93E091EB07F091EC0747
:100A70008081E091F107F091F20782FD1BC0908127
:100A80008091F4078F5F8F732091F507821741F0F3
:100A9000E091F407F0E0E552F84F958F8093F4076A
:100AA000FF91EF919F918F912F910F900FBE0F901B
:100AB0001F9018958081F4CF1F920F920FB60F925E
:100AC00011242F933F938F939F93AF93BF93809164
:100AD000D3079091D407A091D507B091D607309154
:100AE000D20723E0230F2D3758F50196A11DB11D24
:100AF0002093D2078093D3079093D407A093D50770
:100B0000B093D6078091D7079091D807A091D907C5
:100B1000B091DA070196A11DB11D8093D70790937C
:100B2000D807A093D907B093DA07BF91AF919F91EF
:100B30008F913F912F910F900FBE0F901F9018959E
:100B400026E8230F0296A11DB11DD2CF789484B55B
:100B5000826084BD84B5816084BD85B5826085BDB9
:100B600085B5816085BD80916E00816080936E0047
:100B70001092810080918100826080938100809139
:100B800081008160809381008091800081608093EA
:100B900080008091B10084608093B1008091B000AA
:100BA00081608093B00080917A00846080937A00A5
:100BB00080917A00826080937A0080917A008160CF
:100BC00080937A0080917A00806880937A001092F6
:100BD000C100E091EB07F091EC0782E08083E091A7
:100BE000E707F091E8071082E091E907F091EA0742
:100BF0008FEC80831092F307E091EF07F091F007FC
:100C000086E08083E091ED07F091EE0780818061BE
:100C10008083E091ED07F091EE078081886080830A
:100C2000E091ED07F091EE07808180688083E0918C
:100C3000ED07F091EE0780818F7D8083C8EED3E0D1
:100C400003E010E0A5EC2A2EA1E03A2EB3E18B2EB2
:100C5000B1E09B2ED12CC12C89E5C816D10409F036
:100C60008DC0E7EB8E2EE2E09E2EF9E72F2EF2E00C
:100C70003F2ED12CC12C8FE1C816D10409F0C0C081
:100C800065E6262E63E0362E75EF872E72E0972EEE
:100C9000D12CC12C88E3C816D10409F0F3C049E671
:100CA000242E44E0342E55ED852E53E0952ED12C84
:100CB000C12C8AE4C816D10409F026C125EC822E85
:100CC00025E0922E3DEF232E34E0332ED12CC12C83
:100CD00084E6C816D10409F059C18FE2282E87E0B6
:100CE000382E9DE8892E96E0992ED12CC12C81E5D5
:100CF000C816D10409F48CC1F101619171911F01F1
:100D0000CE010E9473092B01770F66087708F40162
:100D1000A190B1904F01C601B8010E947309892BBF
:100D200029F4B301A201C5010E948800C6018370A5
:100D30009927892B29F4B301A201C5010E948800DB
:100D4000B301A201C5010E948800C301B2010E9443
:100D50007A0820E030E040EC5FE30E94DE080E9469
:100D60004208072E000C880B990B0E94750488E03E
:100D70000E94CD02FFEFCF1ADF0AB9CFF1016191D6
:100D800071911F01CE010E9473092B01770F660834
:100D90007708F401A190B1904F01C601B8010E94FB
:100DA0007309892B29F4B301A201C5010E948800AF
:100DB000C60183709927892B29F4B301A201C501CB
:100DC0000E948800B301A201C5010E948800C301EE
:100DD000B2010E947A0826E636E646E85FE30E9402
:100DE000DE080E944208072E000C880B990B0E9417
:100DF000750489E00E94CD02FFEFCF1ADF0A2CCFE5
:100E0000F401619171914F01CE010E9473092B0190
:100E1000770F66087708F101A190B1901F01C60114
:100E2000B8010E947309892B29F4B301A201C501FD
:100E30000E948800C60183709927892B29F4B30189
:100E4000A201C5010E948800B301A201C5010E9450
:100E50008800C301B2010E947A0826E636E646EA17
:100E60005FE30E94DE080E944208072E000C880BF8
:100E7000990B0E94750489E00E94CD02FFEFCF1A02
:100E8000DF0AF9CEF101619171911F01CE010E943B
:100E900073092B01770F66087708F401A190B190D0
:100EA0004F01C601B8010E947309892B29F4B301CF
:100EB000A201C5010E948800C60183709927892B71
:100EC00029F4B301A201C5010E948800B301A20167
:100ED000C5010E948800C301B2010E947A0826E67B
:100EE00036E646EE5FE30E94DE080E944208072EC7
:100EF000000C880B990B0E94750488E00E94CD02BB
:100F0000FFEFCF1ADF0AC6CEF101619171911F0187
:100F1000CE010E9473092B01770F66087708F40150
:100F2000A190B1904F01C601B8010E947309892BAD
:100F300029F4B301A201C5010E948800C601837093
:100F40009927892B29F4B301A201C5010E948800C9
:100F5000B301A201C5010E948800C301B2010E9431
:100F60007A082DEC3CEC4CE250E40E94DE080E9432
:100F70004208072E000C880B990B0E94750489E02B
:100F80000E94CD02FFEFCF1ADF0A93CEF4016191E8
:100F900071914F01CE010E9473092B01770F6608F2
:100FA0007708F101A190B1901F01C601B8010E941C
:100FB0007309892B29F4B301A201C5010E9488009D
:100FC000C60183709927892B29F4B301A201C501B9
:100FD0000E948800B301A201C5010E948800C301DC
:100FE000B2010E947A082DEC3CEC4CE250E40E94E5
:100FF000DE080E944208072E000C880B990B0E9405
:10100000750489E00E94CD02FFEFCF1ADF0A60CE9F
:1010100080E090E0892B09F415CE0E94AD0388236F
:1010200009F410CE0E9400000DCEEBEDF7E0138224
:10103000128288EE93E0A0E0B0E084839583A683DB
:10104000B78385E091E09183808385EC90E095877C
:10105000848784EC90E09787868780EC90E0918B82
:10106000808B81EC90E0938B828B82EC90E0958B6F
:10107000848B86EC90E0978B868B118E128E138E6C
:10108000148E08950E9449086894B1110C94D808F0
:1010900008950E94BD0888F09F5798F0B92F9927AE
:1010A000B751B0F0E1F0660F771F881F991F1AF053
:1010B000BA95C9F714C0B13091F00E94D708B1E0D9
:1010C00008950C94D708672F782F8827B85F39F0D8
:1010D000B93FCCF3869577956795B395D9F73EF4EC
:1010E00090958095709561957F4F8F4F9F4F089594
:1010F000E89409C097FB3EF49095809570956195B2
:101100007F4F8F4F9F4F9923A9F0F92F96E9BB2767
:101110009395F695879577956795B795F111F8CFE3
:10112000FAF4BB0F11F460FF1BC06F5F7F4F8F4F4E
:101130009F4F16C0882311F096E911C0772321F044
:101140009EE8872F762F05C0662371F096E8862FDC
:1011500070E060E02AF09A95660F771F881FDAF733
:10116000880F9695879597F9089557FD9058440FE5
:10117000551F59F05F3F71F04795880F97FB991FF6
:1011800061F09F3F79F087950895121613061406B3
:10119000551FF2CF4695F1DF08C016161706180640
:1011A000991FF1CF86957105610508940895E8941B
:1011B000BB2766277727CB0197F908950E94F1088E
:1011C0000C9462090E94540938F00E945B0920F0D7
:1011D000952311F00C944B090C94510911240C9493
:1011E000D8080E94B50870F3959FC1F3950F50E0A1
:1011F000551F629FF001729FBB27F00DB11D639FC9
:10120000AA27F00DB11DAA1F649F6627B00DA11D6E
:10121000661F829F2227B00DA11D621F739FB00D14
:10122000A11D621F839FA00D611D221F749F332784
:10123000A00D611D231F849F600D211D822F762F1D
:101240006A2F11249F5750409AF0F1F088234AF0FA
:10125000EE0FFF1FBB1F661F771F881F9150504066
:10126000A9F79E3F510580F00C944B090C94D808C7
:101270005F3FE4F3983ED4F3869577956795B795ED
:10128000F795E7959F5FC1F7FE2B880F911D969507
:10129000879597F9089597F99F6780E870E060E077
:1012A00008959FEF80EC089500240A9416161706FF
:1012B00018060906089500240A9412161306140647
:1012C00005060895092E0394000C11F4882352F0AA
:1012D000BB0F40F4BF2B11F460FF04C06F5F7F4F62
:1012E0008F4F9F4F089597FB072E16F4009407D059
:1012F00077FD09D00E94D30907FC05D03EF49095F4
:1013000081959F4F0895709561957F4F0895A1E253
:101310001A2EAA1BBB1BFD010DC0AA1FBB1FEE1F6F
:10132000FF1FA217B307E407F50720F0A21BB30BBA
:10133000E40BF50B661F771F881F991F1A9469F736
:1013400060957095809590959B01AC01BD01CF0192
:101350000895052E97FB1EF400940E94C00957FDC6
:1013600007D00E94870907FC03D04EF40C94C009F3
:1013700050954095309521953F4F4F4F5F4F0895C1
:1013800090958095709561957F4F8F4F9F4F0895F1
:101390000E94ED09A59F900DB49F900DA49F800D14
:1013A000911D11240895AA1BBB1B51E107C0AA1F60
:1013B000BB1FA617B70710F0A61BB70B881F991FF6
:1013C0005A95A9F780959095BC01CD010895EE0F2F
:1013D000FF1F0590F491E02D0994A29FB001B39FE7
:1013E000C001A39F700D811D1124911DB29F700D2E
:0C13F000811D1124911D0895F894FFCF79
:1013FC00FF00000000E303430370033004A1037FEC
:10140C000393032601260126012601260126012627
:10141C000126012601260126012601260126012688
:10142C000126012601260126012601260126012678
:10143C00012601DC0006012601260126014A015D78
:10144C00015D015D0188014A014A01260106010680
:10145C000126010000DC000601F7002601F7004A16
:10146C00015D015D0106010601060106012601066A
:10147C0001260100000000DC0006012601260126E1
:10148C00015D01880188018801B801B801B801B873
:10149C00018801B801260100002601A5005D015D4F
:1014AC00018801B8012601000026015D014A014AAC
:1014BC00015D012601040008000400080004000876
:1014CC0000080008000800040008000400080004DC
:1014DC0000080008000800080004000800040008C8
:1014EC0000040008000800080008000400040008BC
:1014FC0000080004000400080008000400040008B0
:10150C00000800080004000800080008000400049B
:10151C00000800080004000400080008000400048F
:10152C00000800040004000800080008000800047B
:10153C00000400080008000400040008000800046F
:10154C000004000800080008000400080008000857
:10155C00000400040004000800040008000800084F
:10156C00000400040008000800260100005D0126AC
:10157C00010000260188012601060126010000B8A1
:10158C0001260100002601D201B8015D012601B837
:10159C00014B022601060100000601DC004A01266F
:1015AC0001000026012601080008000600100010AA
:1015BC0000100008000800080008000800060010D1
:1015CC0000100010000800080008000800080008BF
:1015DC0000100010001000100008000800020008A5
:1015EC00000400040006010B02DC00B801E900D283
:1015FC00010000000006010B02DC00B801E900D27A
:10160C000100000000AF005D01930026019C003733
:10161C000100000000AF005D01930026019C003723
:10162C0001000000003701150126011501370137B3
:10163C0001D000C4001501060172015D01A500D2A4
:10164C0001B8019F013701F700E900DC00D0000070
:10165C0000000000000C000C000C000C000C000C36
:10166C0000060003000C000C000C000C000C000C1D
:10167C0000060003000C000C000C000C000C000C0D
:10168C0000060003000C000C000C000C000C000CFD
:10169C0000060006001200120012000600060006EA
:1016AC0000060006000600120012001200120012C2
:1016BC000012000A000A000A000A000A000A0003CD
:1016CC0000030003004A01EE01930293029302EE21
:1016DC00014A014A01EE01930293029302EE014A80
:1016EC00014A01EE01930293029302EE014A014A70
:1016FC0001EE019302930293024B024A01EE019315
:10170C000293029302EE014A014A01EE0193029305
:10171C00029302EE01BA024A01EE01930293029384
:10172C0002EE014A014A01EE019302930293024B2D
:10173C000293024A014A014A012601F7004A014A72
:10174C00014A01F7004A0126014A015D0188015D49
:10175C00014A014A014A014A010800080008000830
:10176C000008000800040008000800080008000831
:10177C000008000400080008000800080008000821
:10178C000004000800080008000800040004000819
:10179C000008000800080008000800040008000801
:1017AC0000080008000800080004000800080008F1
:1017BC0000080008000800010008000800080008E4
:1017CC0000040004000400080004000400080008E1
:1017DC0000080008000400080008000400080004C9
:1017EC00000800080004000800040001001704971A
:1017FC0004270575052006000027051704000020A6
:10180C00060000750597040000750500009704DCC0
:10181C0003000075050000270517040000100300E5
:10182C0000170400007505000027052006170400AA
:10183C000027057505270575052705750527051767
:10184C00049704000017049704270575052006006B
:10185C0000270517040000200600007505970400FA
:10186C0000750500009704DC0300007505000027D7
:10187C00051704000070030000E006000020067548
:10188C00052705750520060000170417040000271E
:10189C0005750527051704750527051704E00620AF
:1018AC00060000100310037505270597042705177C
:1018BC000400000000080008000800080008000AE6
:1018CC0000080008000A0008000A000400080002D2
:1018DC000008000A00080008000A0008000A0004BA
:1018EC00000800020008000A0008000A0008000AAC
:1018FC0000040008000400060008000800080008A6
:10190C000008000800080008000400040008000893
:10191C00000800080008000A00080008000A000877
:10192C00000A0004000800020008000A0008000871
:10193C00000A0008000A0004000800020008000A5F
:10194C000008000A00080008000800080004000A4B
:10195C00000800080004000800080008000800083F
:10196C000008000800080002000400080008000835
:10197C00000800080008000600010004004B022AC1
:10198C0002EE0172017201720172017201EE01EE3E
:10199C0001EE01EE01EE01B801EE0188018801882B
:1019AC000188018801EE01EE01EE01EE01EE012A43
:1019BC00024B02B801B801B801B801B801260126E2
:1019CC00012601260126014A014A01150100004B9E
:1019DC00022A02EE0172017201720172017201EEB1
:1019EC0001EE01EE01EE01EE01B801EE0188018875
:1019FC0001880188018801EE01EE01EE01EE01EE95
:101A0C00012A024B02B801B801B801B801B801268D
:101A1C000126012601260126014A014A011501026F
:101A2C000002000400040008000800080008000878
:101A3C000008000800080008000800040004000862
:101A4C00000800080008000800080008000800084A
:101A5C000008000400040008000800080008000842
:101A6C000008000800080008000800040002000834
:101A7C00000200020004000400080008000800082E
:101A8C000008000800080008000800080004000412
:101A9C0000080008000800080008000800080008FA
:101AAC0000080008000400040008000800080008F2
:101ABC0000080008000800080008000800040002E4
:021ACC00000018
:00000001FF
